{"abi":[{"type":"constructor","inputs":[],"stateMutability":"nonpayable"},{"type":"function","name":"allowance","inputs":[{"name":"owner","type":"address","internalType":"address"},{"name":"spender","type":"address","internalType":"address"}],"outputs":[{"name":"","type":"uint256","internalType":"uint256"}],"stateMutability":"view"},{"type":"function","name":"approve","inputs":[{"name":"spender","type":"address","internalType":"address"},{"name":"amount","type":"uint256","internalType":"uint256"}],"outputs":[{"name":"","type":"bool","internalType":"bool"}],"stateMutability":"nonpayable"},{"type":"function","name":"balanceOf","inputs":[{"name":"account","type":"address","internalType":"address"}],"outputs":[{"name":"","type":"uint256","internalType":"uint256"}],"stateMutability":"view"},{"type":"function","name":"decimals","inputs":[],"outputs":[{"name":"","type":"uint8","internalType":"uint8"}],"stateMutability":"view"},{"type":"function","name":"decreaseAllowance","inputs":[{"name":"spender","type":"address","internalType":"address"},{"name":"subtractedValue","type":"uint256","internalType":"uint256"}],"outputs":[{"name":"","type":"bool","internalType":"bool"}],"stateMutability":"nonpayable"},{"type":"function","name":"increaseAllowance","inputs":[{"name":"spender","type":"address","internalType":"address"},{"name":"addedValue","type":"uint256","internalType":"uint256"}],"outputs":[{"name":"","type":"bool","internalType":"bool"}],"stateMutability":"nonpayable"},{"type":"function","name":"name","inputs":[],"outputs":[{"name":"","type":"string","internalType":"string"}],"stateMutability":"view"},{"type":"function","name":"pricePerShare","inputs":[],"outputs":[{"name":"","type":"uint256","internalType":"uint256"}],"stateMutability":"view"},{"type":"function","name":"setPricePerShare","inputs":[{"name":"_pricePerShare","type":"uint256","internalType":"uint256"}],"outputs":[],"stateMutability":"nonpayable"},{"type":"function","name":"symbol","inputs":[],"outputs":[{"name":"","type":"string","internalType":"string"}],"stateMutability":"view"},{"type":"function","name":"totalSupply","inputs":[],"outputs":[{"name":"","type":"uint256","internalType":"uint256"}],"stateMutability":"view"},{"type":"function","name":"transfer","inputs":[{"name":"to","type":"address","internalType":"address"},{"name":"amount","type":"uint256","internalType":"uint256"}],"outputs":[{"name":"","type":"bool","internalType":"bool"}],"stateMutability":"nonpayable"},{"type":"function","name":"transferFrom","inputs":[{"name":"from","type":"address","internalType":"address"},{"name":"to","type":"address","internalType":"address"},{"name":"amount","type":"uint256","internalType":"uint256"}],"outputs":[{"name":"","type":"bool","internalType":"bool"}],"stateMutability":"nonpayable"},{"type":"event","name":"Approval","inputs":[{"name":"owner","type":"address","indexed":true,"internalType":"address"},{"name":"spender","type":"address","indexed":true,"internalType":"address"},{"name":"value","type":"uint256","indexed":false,"internalType":"uint256"}],"anonymous":false},{"type":"event","name":"Transfer","inputs":[{"name":"from","type":"address","indexed":true,"internalType":"address"},{"name":"to","type":"address","indexed":true,"internalType":"address"},{"name":"value","type":"uint256","indexed":false,"internalType":"uint256"}],"anonymous":false}],"bytecode":{"object":"0x6080604052620186a06005553480156200001857600080fd5b506040518060400160405280600b81526020016a1554d115081e55985d5b1d60aa1b815250604051806040016040528060068152602001651e5d9554d11560d21b81525081600390816200006d91906200020f565b5060046200007c82826200020f565b5050506200009a33683635c9adc5dea00000620000a060201b60201c565b62000303565b6001600160a01b038216620000fb5760405162461bcd60e51b815260206004820152601f60248201527f45524332303a206d696e7420746f20746865207a65726f206164647265737300604482015260640160405180910390fd5b80600260008282546200010f9190620002db565b90915550506001600160a01b038216600081815260208181526040808320805486019055518481527fddf252ad1be2c89b69c2b068fc378daa952ba7f163c4a11628f55a4df523b3ef910160405180910390a35050565b505050565b634e487b7160e01b600052604160045260246000fd5b600181811c908216806200019657607f821691505b602082108103620001b757634e487b7160e01b600052602260045260246000fd5b50919050565b601f8211156200016657600081815260208120601f850160051c81016020861015620001e65750805b601f850160051c820191505b818110156200020757828155600101620001f2565b505050505050565b81516001600160401b038111156200022b576200022b6200016b565b62000243816200023c845462000181565b84620001bd565b602080601f8311600181146200027b5760008415620002625750858301515b600019600386901b1c1916600185901b17855562000207565b600085815260208120601f198616915b82811015620002ac578886015182559484019460019091019084016200028b565b5085821015620002cb5787850151600019600388901b60f8161c191681555b5050505050600190811b01905550565b80820180821115620002fd57634e487b7160e01b600052601160045260246000fd5b92915050565b6108af80620003136000396000f3fe608060405234801561001057600080fd5b50600436106100cf5760003560e01c8063395093511161008c57806399530b061161006657806399530b06146101a2578063a457c2d7146101ab578063a9059cbb146101be578063dd62ed3e146101d157600080fd5b8063395093511461015e57806370a082311461017157806395d89b411461019a57600080fd5b806306fdde03146100d4578063095ea7b3146100f2578063118c9a071461011557806318160ddd1461012a57806323b872dd1461013c578063313ce5671461014f575b600080fd5b6100dc6101e4565b6040516100e991906106e0565b60405180910390f35b61010561010036600461074a565b610276565b60405190151581526020016100e9565b610128610123366004610774565b600555565b005b6002545b6040519081526020016100e9565b61010561014a36600461078d565b610290565b604051601281526020016100e9565b61010561016c36600461074a565b6102b4565b61012e61017f3660046107c9565b6001600160a01b031660009081526020819052604090205490565b6100dc6102d6565b61012e60055481565b6101056101b936600461074a565b6102e5565b6101056101cc36600461074a565b610365565b61012e6101df3660046107eb565b610373565b6060600380546101f39061081e565b80601f016020809104026020016040519081016040528092919081815260200182805461021f9061081e565b801561026c5780601f106102415761010080835404028352916020019161026c565b820191906000526020600020905b81548152906001019060200180831161024f57829003601f168201915b5050505050905090565b60003361028481858561039e565b60019150505b92915050565b60003361029e8582856104c2565b6102a985858561053c565b506001949350505050565b6000336102848185856102c78383610373565b6102d19190610858565b61039e565b6060600480546101f39061081e565b600033816102f38286610373565b9050838110156103585760405162461bcd60e51b815260206004820152602560248201527f45524332303a2064656372656173656420616c6c6f77616e63652062656c6f77604482015264207a65726f60d81b60648201526084015b60405180910390fd5b6102a9828686840361039e565b60003361028481858561053c565b6001600160a01b03918216600090815260016020908152604080832093909416825291909152205490565b6001600160a01b0383166104005760405162461bcd60e51b8152602060048201526024808201527f45524332303a20617070726f76652066726f6d20746865207a65726f206164646044820152637265737360e01b606482015260840161034f565b6001600160a01b0382166104615760405162461bcd60e51b815260206004820152602260248201527f45524332303a20617070726f766520746f20746865207a65726f206164647265604482015261737360f01b606482015260840161034f565b6001600160a01b0383811660008181526001602090815260408083209487168084529482529182902085905590518481527f8c5be1e5ebec7d5bd14f71427d1e84f3dd0314c0f7b2291e5b200ac8c7c3b925910160405180910390a3505050565b60006104ce8484610373565b9050600019811461053657818110156105295760405162461bcd60e51b815260206004820152601d60248201527f45524332303a20696e73756666696369656e7420616c6c6f77616e6365000000604482015260640161034f565b610536848484840361039e565b50505050565b6001600160a01b0383166105a05760405162461bcd60e51b815260206004820152602560248201527f45524332303a207472616e736665722066726f6d20746865207a65726f206164604482015264647265737360d81b606482015260840161034f565b6001600160a01b0382166106025760405162461bcd60e51b815260206004820152602360248201527f45524332303a207472616e7366657220746f20746865207a65726f206164647260448201526265737360e81b606482015260840161034f565b6001600160a01b0383166000908152602081905260409020548181101561067a5760405162461bcd60e51b815260206004820152602660248201527f45524332303a207472616e7366657220616d6f756e7420657863656564732062604482015265616c616e636560d01b606482015260840161034f565b6001600160a01b03848116600081815260208181526040808320878703905593871680835291849020805487019055925185815290927fddf252ad1be2c89b69c2b068fc378daa952ba7f163c4a11628f55a4df523b3ef910160405180910390a3610536565b600060208083528351808285015260005b8181101561070d578581018301518582016040015282016106f1565b506000604082860101526040601f19601f8301168501019250505092915050565b80356001600160a01b038116811461074557600080fd5b919050565b6000806040838503121561075d57600080fd5b6107668361072e565b946020939093013593505050565b60006020828403121561078657600080fd5b5035919050565b6000806000606084860312156107a257600080fd5b6107ab8461072e565b92506107b96020850161072e565b9150604084013590509250925092565b6000602082840312156107db57600080fd5b6107e48261072e565b9392505050565b600080604083850312156107fe57600080fd5b6108078361072e565b91506108156020840161072e565b90509250929050565b600181811c9082168061083257607f821691505b60208210810361085257634e487b7160e01b600052602260045260246000fd5b50919050565b8082018082111561028a57634e487b7160e01b600052601160045260246000fdfea2646970667358221220d36ad4992550db229f233fd0003540f5ea9b757eb0bea208f1b202ad10e2faa864736f6c63430008110033","linkReferences":{}},"methodIdentifiers":{"allowance(address,address)":"dd62ed3e","approve(address,uint256)":"095ea7b3","balanceOf(address)":"70a08231","decimals()":"313ce567","decreaseAllowance(address,uint256)":"a457c2d7","increaseAllowance(address,uint256)":"39509351","name()":"06fdde03","pricePerShare()":"99530b06","setPricePerShare(uint256)":"118c9a07","symbol()":"95d89b41","totalSupply()":"18160ddd","transfer(address,uint256)":"a9059cbb","transferFrom(address,address,uint256)":"23b872dd"},"id":8}