{"abi":[{"type":"constructor","inputs":[{"name":"_owner","type":"address","internalType":"address"},{"name":"_name","type":"string","internalType":"string"},{"name":"_poolIncentivized","type":"address","internalType":"address"},{"name":"_LPTokenAmount","type":"uint256","internalType":"uint256"},{"name":"_startTime","type":"uint256","internalType":"uint256"},{"name":"_endTime","type":"uint256","internalType":"uint256"},{"name":"_subscriptionId","type":"uint64","internalType":"uint64"},{"name":"_gasLane","type":"bytes32","internalType":"bytes32"},{"name":"_callbackGasLimit","type":"uint32","internalType":"uint32"},{"name":"_vrfCoordinatorV2","type":"address","internalType":"address"}],"stateMutability":"nonpayable"},{"type":"function","name":"LPTokenAmount","inputs":[],"outputs":[{"name":"","type":"uint256","internalType":"uint256"}],"stateMutability":"view"},{"type":"function","name":"LPTokenAmountOfPlayer","inputs":[{"name":"_player","type":"address","internalType":"address"}],"outputs":[{"name":"","type":"uint256","internalType":"uint256"}],"stateMutability":"view"},{"type":"function","name":"LPTokenDecimals","inputs":[],"outputs":[{"name":"","type":"uint256","internalType":"uint256"}],"stateMutability":"view"},{"type":"function","name":"LPTokenSymbol","inputs":[],"outputs":[{"name":"","type":"string","internalType":"string"}],"stateMutability":"view"},{"type":"function","name":"alreadyPlayed","inputs":[{"name":"_player","type":"address","internalType":"address"}],"outputs":[{"name":"","type":"bool","internalType":"bool"}],"stateMutability":"view"},{"type":"function","name":"contractGameRequestId","inputs":[{"name":"","type":"uint256","internalType":"uint256"}],"outputs":[{"name":"playerMove","type":"uint8","internalType":"uint8"},{"name":"player","type":"address","internalType":"address"},{"name":"fulfilled","type":"bool","internalType":"bool"},{"name":"exists","type":"bool","internalType":"bool"},{"name":"vrfMove","type":"uint256","internalType":"uint256"},{"name":"winner","type":"address","internalType":"address"}],"stateMutability":"view"},{"type":"function","name":"contractLPToken","inputs":[],"outputs":[{"name":"","type":"uint256","internalType":"uint256"}],"stateMutability":"view"},{"type":"function","name":"currentMove","inputs":[],"outputs":[{"name":"","type":"uint8","internalType":"uint8"}],"stateMutability":"view"},{"type":"function","name":"currentPlayer","inputs":[],"outputs":[{"name":"","type":"address","internalType":"address"}],"stateMutability":"view"},{"type":"function","name":"endTime","inputs":[],"outputs":[{"name":"","type":"uint256","internalType":"uint256"}],"stateMutability":"view"},{"type":"function","name":"fees","inputs":[],"outputs":[{"name":"","type":"uint256","internalType":"uint256"}],"stateMutability":"view"},{"type":"function","name":"getExpectedPoolPrize","inputs":[],"outputs":[{"name":"","type":"uint256","internalType":"uint256"}],"stateMutability":"view"},{"type":"function","name":"getFees","inputs":[],"outputs":[{"name":"","type":"uint256","internalType":"uint256"}],"stateMutability":"view"},{"type":"function","name":"getGame","inputs":[{"name":"_requestId","type":"uint256","internalType":"uint256"}],"outputs":[{"name":"playerMove","type":"uint8","internalType":"uint8"},{"name":"gamePlayer","type":"address","internalType":"address"},{"name":"fulfilled","type":"bool","internalType":"bool"},{"name":"exists","type":"bool","internalType":"bool"},{"name":"randomWords","type":"uint256[]","internalType":"uint256[]"},{"name":"vrfMove","type":"uint256","internalType":"uint256"},{"name":"winner","type":"address","internalType":"address"}],"stateMutability":"view"},{"type":"function","name":"getNumberOfPlayers","inputs":[],"outputs":[{"name":"","type":"uint256","internalType":"uint256"}],"stateMutability":"view"},{"type":"function","name":"getPlayers","inputs":[],"outputs":[{"name":"","type":"address[]","internalType":"address[]"}],"stateMutability":"view"},{"type":"function","name":"getPlayersAtScore","inputs":[{"name":"_score","type":"uint256","internalType":"uint256"}],"outputs":[{"name":"","type":"address[]","internalType":"address[]"}],"stateMutability":"view"},{"type":"function","name":"getPoolPrize","inputs":[],"outputs":[{"name":"","type":"uint256","internalType":"uint256"}],"stateMutability":"view"},{"type":"function","name":"getPrizeAmount","inputs":[{"name":"_player","type":"address","internalType":"address"}],"outputs":[{"name":"","type":"uint256","internalType":"uint256"}],"stateMutability":"view"},{"type":"function","name":"getPrizeShare","inputs":[{"name":"_player","type":"address","internalType":"address"}],"outputs":[{"name":"","type":"uint256","internalType":"uint256"}],"stateMutability":"view"},{"type":"function","name":"getRank","inputs":[{"name":"_player","type":"address","internalType":"address"}],"outputs":[{"name":"rank","type":"uint256","internalType":"uint256"},{"name":"split","type":"uint256","internalType":"uint256"}],"stateMutability":"view"},{"type":"function","name":"getTournament","inputs":[],"outputs":[{"name":"rName","type":"string","internalType":"string"},{"name":"contractAddress","type":"address","internalType":"address"},{"name":"rPoolIncentivized","type":"address","internalType":"address"},{"name":"rLPTokenSymbol","type":"string","internalType":"string"},{"name":"rLPTokenAmount","type":"uint256","internalType":"uint256"},{"name":"rStartTime","type":"uint256","internalType":"uint256"},{"name":"rEndTime","type":"uint256","internalType":"uint256"}],"stateMutability":"view"},{"type":"function","name":"isActive","inputs":[],"outputs":[{"name":"","type":"bool","internalType":"bool"}],"stateMutability":"view"},{"type":"function","name":"isEnded","inputs":[],"outputs":[{"name":"","type":"bool","internalType":"bool"}],"stateMutability":"view"},{"type":"function","name":"isFuture","inputs":[],"outputs":[{"name":"","type":"bool","internalType":"bool"}],"stateMutability":"view"},{"type":"function","name":"isPlayer","inputs":[{"name":"_player","type":"address","internalType":"address"}],"outputs":[{"name":"","type":"bool","internalType":"bool"}],"stateMutability":"view"},{"type":"function","name":"lastRequestId","inputs":[],"outputs":[{"name":"","type":"uint256","internalType":"uint256"}],"stateMutability":"view"},{"type":"function","name":"name","inputs":[],"outputs":[{"name":"","type":"string","internalType":"string"}],"stateMutability":"view"},{"type":"function","name":"owner","inputs":[],"outputs":[{"name":"","type":"address","internalType":"address"}],"stateMutability":"view"},{"type":"function","name":"playAgainstContract","inputs":[{"name":"_playerMove","type":"uint8","internalType":"uint8"}],"outputs":[{"name":"requestId","type":"uint256","internalType":"uint256"}],"stateMutability":"nonpayable"},{"type":"function","name":"playAgainstPlayer","inputs":[{"name":"_move","type":"uint8","internalType":"uint8"}],"outputs":[],"stateMutability":"nonpayable"},{"type":"function","name":"player","inputs":[{"name":"_player","type":"address","internalType":"address"}],"outputs":[{"name":"LPToken","type":"uint256","internalType":"uint256"},{"name":"score","type":"uint256","internalType":"uint256"},{"name":"lastGame","type":"uint256","internalType":"uint256"}],"stateMutability":"view"},{"type":"function","name":"players","inputs":[{"name":"","type":"uint256","internalType":"uint256"}],"outputs":[{"name":"","type":"address","internalType":"address"}],"stateMutability":"view"},{"type":"function","name":"playersMap","inputs":[{"name":"","type":"address","internalType":"address"}],"outputs":[{"name":"score","type":"uint256","internalType":"uint256"},{"name":"lastGame","type":"uint256","internalType":"uint256"},{"name":"depositPricePerShare","type":"uint256","internalType":"uint256"},{"name":"depositPricePerShare2","type":"uint256","internalType":"uint256"}],"stateMutability":"view"},{"type":"function","name":"pointsOfPlayer","inputs":[{"name":"_player","type":"address","internalType":"address"}],"outputs":[{"name":"","type":"uint256","internalType":"uint256"}],"stateMutability":"view"},{"type":"function","name":"protocol","inputs":[],"outputs":[{"name":"","type":"uint8","internalType":"enum Tournament.Protocol"}],"stateMutability":"view"},{"type":"function","name":"rawFulfillRandomWords","inputs":[{"name":"requestId","type":"uint256","internalType":"uint256"},{"name":"randomWords","type":"uint256[]","internalType":"uint256[]"}],"outputs":[],"stateMutability":"nonpayable"},{"type":"function","name":"requestIds","inputs":[{"name":"","type":"uint256","internalType":"uint256"}],"outputs":[{"name":"","type":"uint256","internalType":"uint256"}],"stateMutability":"view"},{"type":"function","name":"resolveVrfGame","inputs":[{"name":"requestId","type":"uint256","internalType":"uint256"}],"outputs":[{"name":"winner","type":"address","internalType":"address"}],"stateMutability":"nonpayable"},{"type":"function","name":"scoreToPlayers","inputs":[{"name":"","type":"uint256","internalType":"uint256"},{"name":"","type":"uint256","internalType":"uint256"}],"outputs":[{"name":"","type":"address","internalType":"address"}],"stateMutability":"view"},{"type":"function","name":"stakeLPToken","inputs":[],"outputs":[],"stateMutability":"nonpayable"},{"type":"function","name":"stakingAllowed","inputs":[],"outputs":[{"name":"","type":"bool","internalType":"bool"}],"stateMutability":"view"},{"type":"function","name":"startTime","inputs":[],"outputs":[{"name":"","type":"uint256","internalType":"uint256"}],"stateMutability":"view"},{"type":"function","name":"topScore","inputs":[],"outputs":[{"name":"","type":"uint256","internalType":"uint256"}],"stateMutability":"view"},{"type":"function","name":"unstakeLPToken","inputs":[],"outputs":[],"stateMutability":"nonpayable"},{"type":"function","name":"unstakingAllowed","inputs":[],"outputs":[{"name":"","type":"bool","internalType":"bool"}],"stateMutability":"view"},{"type":"function","name":"withdrawFees","inputs":[],"outputs":[],"stateMutability":"nonpayable"},{"type":"event","name":"ContractPlayed","inputs":[{"name":"move","type":"uint256","indexed":false,"internalType":"uint256"}],"anonymous":false},{"type":"event","name":"GameResolved","inputs":[{"name":"winner","type":"address","indexed":false,"internalType":"address"}],"anonymous":false},{"type":"event","name":"MoveMade","inputs":[{"name":"move","type":"uint256","indexed":false,"internalType":"uint256"}],"anonymous":false},{"type":"event","name":"PlayerPlayedAganistContract","inputs":[{"name":"playerMove","type":"uint8","indexed":false,"internalType":"uint8"}],"anonymous":false},{"type":"event","name":"RequestFulfilled","inputs":[{"name":"requestId","type":"uint256","indexed":false,"internalType":"uint256"},{"name":"randomWords","type":"uint256[]","indexed":false,"internalType":"uint256[]"}],"anonymous":false},{"type":"event","name":"RequestSent","inputs":[{"name":"requestId","type":"uint256","indexed":false,"internalType":"uint256"}],"anonymous":false},{"type":"event","name":"Staked","inputs":[{"name":"player","type":"address","indexed":true,"internalType":"address"},{"name":"amount","type":"uint256","indexed":false,"internalType":"uint256"}],"anonymous":false},{"type":"event","name":"Unstaked","inputs":[{"name":"player","type":"address","indexed":true,"internalType":"address"},{"name":"amount","type":"uint256","indexed":false,"internalType":"uint256"}],"anonymous":false},{"type":"error","name":"InvalidMove","inputs":[]},{"type":"error","name":"NotEnded","inputs":[]},{"type":"error","name":"NotEnoughFunds","inputs":[]},{"type":"error","name":"NotRegistered","inputs":[]},{"type":"error","name":"OnlyCoordinatorCanFulfill","inputs":[{"name":"have","type":"address","internalType":"address"},{"name":"want","type":"address","internalType":"address"}]}],"bytecode":{"object":"0x61012060405267016345785d8a0000600b556000600c553480156200002357600080fd5b5060405162002e1e38038062002e1e833981016040819052620000469162000401565b6001600160a01b038116608052848610620000b35760405162461bcd60e51b815260206004820152602260248201527f53746172742074696d65206d757374206265206265666f726520656e642074696044820152616d6560f01b60648201526084015b60405180910390fd5b428611620001045760405162461bcd60e51b815260206004820181905260248201527f53746172742074696d65206d75737420626520696e20746865206675747572656044820152606401620000aa565b6001600160a01b038a1660a05260006200011f8a8262000561565b5060058790556001600160a01b03881615620002b957600280546001600160a01b0319166001600160a01b038a16908117909155604080516395d89b4160e01b815290516395d89b41916004808201926000929091908290030181865afa1580156200018f573d6000803e3d6000fd5b505050506040513d6000823e601f3d908101601f19168201604052620001b991908101906200062d565b600390620001c8908262000561565b50600260009054906101000a90046001600160a01b03166001600160a01b031663313ce5676040518163ffffffff1660e01b8152600401602060405180830381865afa1580156200021d573d6000803e3d6000fd5b505050506040513d601f19601f820116820180604052508101906200024391906200066d565b60ff166004556040517f0c49a525f6758cfb27d0ada1467d2a2e99733995423d47ae30ae4ba2ba563255906200027f9060039060200162000699565b6040516020818303038152906040528051906020012003620002ab576008805460ff19169055620002b9565b6008805460ff191660011790555b6006959095556007939093556001600160a01b0390931660c0526001600160401b031660e052610100919091526014805463ffffffff191663ffffffff909216919091179055506200072c92505050565b80516001600160a01b03811681146200032257600080fd5b919050565b634e487b7160e01b600052604160045260246000fd5b600082601f8301126200034f57600080fd5b81516001600160401b03808211156200036c576200036c62000327565b604051601f8301601f19908116603f0116810190828211818310171562000397576200039762000327565b81604052838152602092508683858801011115620003b457600080fd5b600091505b83821015620003d85785820183015181830184015290820190620003b9565b600093810190920192909252949350505050565b805163ffffffff811681146200032257600080fd5b6000806000806000806000806000806101408b8d0312156200042257600080fd5b6200042d8b6200030a565b60208c0151909a506001600160401b03808211156200044b57600080fd5b620004598e838f016200033d565b9a506200046960408e016200030a565b995060608d0151985060808d0151975060a08d0151965060c08d0151915080821682146200049657600080fd5b5060e08c01519094509250620004b06101008c01620003ec565b9150620004c16101208c016200030a565b90509295989b9194979a5092959850565b600181811c90821680620004e757607f821691505b6020821081036200050857634e487b7160e01b600052602260045260246000fd5b50919050565b601f8211156200055c57600081815260208120601f850160051c81016020861015620005375750805b601f850160051c820191505b81811015620005585782815560010162000543565b5050505b505050565b81516001600160401b038111156200057d576200057d62000327565b62000595816200058e8454620004d2565b846200050e565b602080601f831160018114620005cd5760008415620005b45750858301515b600019600386901b1c1916600185901b17855562000558565b600085815260208120601f198616915b82811015620005fe57888601518255948401946001909101908401620005dd565b50858210156200061d5787850151600019600388901b60f8161c191681555b5050505050600190811b01905550565b6000602082840312156200064057600080fd5b81516001600160401b038111156200065757600080fd5b62000665848285016200033d565b949350505050565b6000602082840312156200068057600080fd5b815160ff811681146200069257600080fd5b9392505050565b6000602080835260008454620006af81620004d2565b80848701526040600180841660008114620006d35760018114620006ee576200071e565b60ff1985168984015283151560051b8901830195506200071e565b896000528660002060005b85811015620007165781548b8201860152908301908801620006f9565b8a0184019650505b509398975050505050505050565b60805160a05160c05160e05161010051612698620007866000396000611a8901526000611ab8015260008181610fdc0152611afd01526000818161057e0152610cb501526000818161086301526108a501526126986000f3fe608060405234801561001057600080fd5b50600436106102955760003560e01c80637d0774fc11610167578063a73adbc6116100ce578063db8d55f111610087578063db8d55f114610688578063e76c293e14610690578063ef32f907146106ab578063f71d96cb146106ca578063fc2a88c3146106dd578063fd6673f5146106e657600080fd5b8063a73adbc614610641578063a7b5f8b01461064a578063abe081b114610652578063bbc6c1981461065a578063db40906e1461066d578063db5e2d021461068057600080fd5b8063979215de11610120578063979215de146105a05780639af1d35a146105f5578063a0aae3dd146105fe578063a2f77bcc14610608578063a4fd6f561461062e578063a5db0c4b1461063957600080fd5b80637d0774fc146105115780638796ba8c146105245780638b5b9ccc146105375780638c0d6cdc1461054c5780638ce744261461055f5780638da5cb5b1461057957600080fd5b806340516da31161020b5780635d2ae5d3116101c45780635d2ae5d3146104435780636e3fed471461045657806370a423a91461045e578063724c9b231461046757806378e979251461046f5780637c8d1a951461047857600080fd5b806340516da3146103995780634404a438146103a2578063444f682b146103d2578063476343ee146103e55780634c54e1b5146103ed578063548c0ef41461041b57600080fd5b8063218e97f81161025d578063218e97f81461033157806322f3e2d41461035a57806326695d96146103625780632ac061781461036a5780633197cbb61461037d57806336cdbcaf1461038657600080fd5b806301e079f31461029a57806306fdde03146102b657806309c95e10146102cb5780630db88514146103095780631fe543e31461031c575b600080fd5b6102a360055481565b6040519081526020015b60405180910390f35b6102be6106ee565b6040516102ad9190612075565b6102f96102d936600461208f565b6001600160a01b0316600090815260106020526040902060020154151590565b60405190151581526020016102ad565b6102a361031736600461208f565b61077c565b61032f61032a3660046120ce565b610858565b005b6102a361033f36600461208f565b6001600160a01b031660009081526010602052604090205490565b6102f96108e5565b61032f6108ff565b6102a3610378366004612198565b610a43565b6102a360075481565b61032f610394366004612198565b610b01565b6102a360015481565b600d546103ba9061010090046001600160a01b031681565b6040516001600160a01b0390911681526020016102ad565b6102a36103e036600461208f565b610c68565b61032f610caa565b6104006103fb36600461208f565b610df7565b604080519384526020840192909252908201526060016102ad565b61042e61042936600461208f565b610e31565b604080519283526020830191909152016102ad565b6103ba6104513660046121bb565b610eba565b6102a3610ef2565b6102a360045481565b6102f9610f43565b6102a360065481565b6104d16104863660046121dd565b60116020526000908152604090208054600282015460039092015460ff808316936001600160a01b036101008504811694600160a81b8104841694600160b01b909104909316921686565b6040805160ff90971687526001600160a01b03958616602088015293151593860193909352901515606085015260808401521660a082015260c0016102ad565b6103ba61051f3660046121dd565b610f51565b6102a36105323660046121dd565b61109c565b61053f6110bd565b6040516102ad91906121f6565b6102a361055a36600461208f565b61111f565b60085461056c9060ff1681565b6040516102ad9190612259565b6103ba7f000000000000000000000000000000000000000000000000000000000000000081565b6105d56105ae36600461208f565b60106020526000908152604090208054600182015460028301546003909301549192909184565b6040805194855260208501939093529183015260608201526080016102ad565b6102a3600b5481565b60065442106102f9565b61061b6106163660046121dd565b611155565b6040516102ad9796959493929190612281565b6007544210156102f9565b61032f61121b565b6102a3600c5481565b6102be61141a565b6102f9611427565b61053f6106683660046121dd565b61143b565b6102f961067b36600461208f565b6114a7565b6102a3611537565b6102a361162d565b610698611657565b6040516102ad9796959493929190612314565b600d546106b89060ff1681565b60405160ff90911681526020016102ad565b6103ba6106d83660046121dd565b6117ab565b6102a360135481565b600e546102a3565b600080546106fb90612370565b80601f016020809104026020016040519081016040528092919081815260200182805461072790612370565b80156107745780601f1061074957610100808354040283529160200191610774565b820191906000526020600020905b81548152906001019060200180831161075757829003601f168201915b505050505081565b60008060006107896117d5565b600854919350915060ff1660018111156107a5576107a5612243565b6001036107e8576001600160a01b03841660009081526010602052604090206002015460055483916107d6916123c0565b6107e091906123ed565b949350505050565b6001600160a01b03841660009081526010602052604090206003015460029061081190836123ed565b6001600160a01b03861660009081526010602052604090206002015461083790856123ed565b6108419190612401565b61084b91906123ed565b6005546107e091906123ed565b336001600160a01b037f000000000000000000000000000000000000000000000000000000000000000016146108d75760405163073e64fd60e21b81523360048201526001600160a01b037f00000000000000000000000000000000000000000000000000000000000000001660248201526044015b60405180910390fd5b6108e18282611970565b5050565b600060065442101580156108fa575060075442105b905090565b6002546005546040516323b872dd60e01b815233600482015230602482015260448101919091526001600160a01b03909116906323b872dd906064016020604051808303816000875af115801561095a573d6000803e3d6000fd5b505050506040513d601f19601f8201168201806040525081019061097e9190612414565b61099a5760405162461bcd60e51b81526004016108ce90612436565b6000806109a56117d5565b33600081815260106020908152604080832060028101879055600301859055600e805460018101825593527fbb7b4a454dc3493923482f07822329ed19e8244eff582cc204f8554c3620c3fd90920180546001600160a01b031916841790556005549151918252939550919350917f9e71bc8eea02a63969f509818f2dafb9254532904319f9dbda79b67bd34a5f3d91015b60405180910390a25050565b6000610a4d6108e5565b610a945760405162461bcd60e51b8152602060048201526018602482015277546f75726e616d656e74206973206e6f742061637469766560401b60448201526064016108ce565b60028260ff161115610ab9576040516321e08b4d60e21b815260040160405180910390fd5b610ac38233611a77565b60405160ff841681529091507f4ba5854d8194612c6bf0c95f810e3a20285ea08892109146d89d59580a734c8b9060200160405180910390a1919050565b60ff81161580610b14575060038160ff16115b15610b32576040516321e08b4d60e21b815260040160405180910390fd5b600d5461010090046001600160a01b03163303610b62576040516321e08b4d60e21b815260040160405180910390fd5b33600090815260106020526040902060020154610b925760405163aba4733960e01b815260040160405180910390fd5b610b9a6108e5565b610be15760405162461bcd60e51b8152602060048201526018602482015277546f75726e616d656e74206973206e6f742061637469766560401b60448201526064016108ce565b33600090815260106020526040902042600190910155600d5460ff1615610c1157610c0b81611ce7565b50610c2f565b600d805433610100026001600160a81b031990911660ff8416171790555b60405160ff821681527ffb0ea1eb698a67de7ceab89141687391ed28f92113a960973b8a067cde5dfe319060200160405180910390a150565b6000806000610c7684610e31565b9150915080600003610c8c575060009392505050565b80610c98836002612551565b6107d690670de0b6b3a76400006123ed565b336001600160a01b037f00000000000000000000000000000000000000000000000000000000000000001614610d125760405162461bcd60e51b815260206004820152600d60248201526c2737ba103a34329027bbb732b960991b60448201526064016108ce565b6000600a5411610d5a5760405162461bcd60e51b81526020600482015260136024820152724e6f206665657320746f20776974686472617760681b60448201526064016108ce565b600a8054600090915560025460405163a9059cbb60e01b8152336004820152602481018390526001600160a01b039091169063a9059cbb906044016020604051808303816000875af1158015610db4573d6000803e3d6000fd5b505050506040513d601f19601f82011682018060405250810190610dd89190612414565b610df45760405162461bcd60e51b81526004016108ce90612436565b50565b6000806000610e058461077c565b6001600160a01b0390941660009081526010602052604090208054600190910154949590949350915050565b600c5460009081905b6001600160a01b0384166000908152601060205260409020548110610e8d576000818152600f602052604090205415610e7b57610e78600184612401565b92505b80610e858161255d565b915050610e3a565b50506001600160a01b039091166000908152601060209081526040808320548352600f9091529020549091565b600f6020528160005260406000208181548110610ed657600080fd5b6000918252602090912001546001600160a01b03169150829050565b6000610eff600654421090565b15610f0a5750600090565b600654610f179042612574565b600654600754610f279190612574565b610f2f611537565b610f3991906123c0565b6108fa91906123ed565b60006108fa60075442101590565b60008181526011602052604081206002810154815460ff1603610fa0578054610f899061010090046001600160a01b03166001611da3565b6003810180546001600160a01b0319169055611051565b60028101548154600390610fb89060ff166001612587565b610fc291906125a0565b60ff160361100c576003810180546001600160a01b0319167f00000000000000000000000000000000000000000000000000000000000000006001600160a01b0316179055611051565b80546110279061010090046001600160a01b03166002611da3565b80546003820180546101009092046001600160a01b03166001600160a01b03199092169190911790555b60038101546040516001600160a01b0390911680825292507f2a2cb2e94a6626cc0ba41c90bd87ad701bdf47a8c3d7300070c92c0fd36b872b9060200160405180910390a150919050565b601281815481106110ac57600080fd5b600091825260209091200154905081565b6060600e80548060200260200160405190810160405280929190818152602001828054801561111557602002820191906000526020600020905b81546001600160a01b031681526001909101906020018083116110f7575b5050505050905090565b6000670de0b6b3a764000061113383610c68565b61113b611537565b61114591906123c0565b61114f91906123ed565b92915050565b600081815260116020908152604080832080546001909101805483518186028101860190945280845260ff808416966001600160a01b0361010086041696600160a81b8604831696600160b01b90960490921694606094919384939192918301828280156111e257602002820191906000526020600020905b8154815260200190600101908083116111ce575b50505060009a8b525050601160205260409098206002810154600390910154979996989597949690946001600160a01b03169350915050565b6112236108e5565b1561124157604051631a6031a360e31b815260040160405180910390fd5b336000908152601060205260409020600201546112a05760405162461bcd60e51b815260206004820152601c60248201527f596f752068617665206e6f7468696e6720746f2077697468647261770000000060448201526064016108ce565b60006112ab3361077c565b90506000816005546112bd9190612574565b670de0b6b3a7640000600b54670de0b6b3a76400006112dc9190612574565b6112e691906123ed565b6112f091906123c0565b905080600960008282546113049190612401565b9091555050600554611317908290612574565b600a60008282546113289190612401565b9091555061133790503361111f565b6113419083612401565b60025460405163a9059cbb60e01b8152336004820152602481018390529193506001600160a01b03169063a9059cbb906044016020604051808303816000875af1158015611393573d6000803e3d6000fd5b505050506040513d601f19601f820116820180604052508101906113b79190612414565b6113d35760405162461bcd60e51b81526004016108ce90612436565b3360008181526010602052604080822060020191909155517f0f5bb82176feb1b5e747e28471aa92156a04d9f3ab9f45f28e2d704232b93f7590610a379085815260200190565b600380546106fb90612370565b600061143560075442101590565b15905090565b6000818152600f602090815260409182902080548351818402810184019094528084526060939283018282801561149b57602002820191906000526020600020905b81546001600160a01b0316815260019091019060200180831161147d575b50505050509050919050565b600080620151806114b881426125c2565b6114c29042612574565b6114cc91906123ed565b6001600160a01b0384166000908152601060205260408120600101549192509062015180906114fc9082906125c2565b6001600160a01b0386166000908152601060205260409020600101546115229190612574565b61152c91906123ed565b919091149392505050565b600080805b600e548110156115e65760106000600e838154811061155d5761155d6125d6565b60009182526020808320909101546001600160a01b03168352820192909252604001902060020154156115d4576115ba600e82815481106115a0576115a06125d6565b6000918252602090912001546001600160a01b031661077c565b6005546115c79190612574565b6115d19083612401565b91505b806115de816125ec565b91505061153c565b50670de0b6b3a7640000600b54670de0b6b3a76400006116069190612574565b61161090836123c0565b61161a91906123ed565b6009546116279190612401565b91505090565b6000611637611537565b670de0b6b3a7640000600b5461164d91906123ed565b6108fa91906123c0565b60606000806060600080600080805461166f90612370565b80601f016020809104026020016040519081016040528092919081815260200182805461169b90612370565b80156116e85780601f106116bd576101008083540402835291602001916116e8565b820191906000526020600020905b8154815290600101906020018083116116cb57829003601f168201915b505060025460038054959c50309b506001600160a01b03909116995093611713935091506123709050565b80601f016020809104026020016040519081016040528092919081815260200182805461173f90612370565b801561178c5780601f106117615761010080835404028352916020019161178c565b820191906000526020600020905b81548152906001019060200180831161176f57829003601f168201915b5050505050935060055492506006549150600754905090919293949596565b600e81815481106117bb57600080fd5b6000918252602090912001546001600160a01b0316905081565b600854600090819060ff1660018111156117f1576117f1612243565b6001036118715760025460408051634ca9858360e11b815290516001600160a01b039092169182916399530b069160048083019260209291908290030181865afa158015611843573d6000803e3d6000fd5b505050506040513d601f19601f820116820180604052508101906118679190612605565b9360009350915050565b60025460408051630240bc6b60e21b815290516001600160a01b039092169160009182918491630902f1ac9160048083019260609291908290030181865afa1580156118c1573d6000803e3d6000fd5b505050506040513d601f19601f820116820180604052508101906118e5919061261e565b50915091506000836001600160a01b03166318160ddd6040518163ffffffff1660e01b8152600401602060405180830381865afa15801561192a573d6000803e3d6000fd5b505050506040513d601f19601f8201168201806040525081019061194e9190612605565b905061195a81846123ed565b61196482846123ed565b95509550505050509091565b600082815260116020526040902054600160b01b900460ff166119c95760405162461bcd60e51b81526020600482015260116024820152701c995c5d595cdd081b9bdd08199bdd5b99607a1b60448201526064016108ce565b60006003826000815181106119e0576119e06125d6565b60200260200101516119f291906125c2565b6000848152601160209081526040909120805460ff60a81b1916600160a81b178155845192935091611a2c91600184019190860190611fcf565b5060028101829055611a3d84610f51565b506040518281527f3451627bd48fbfc7d257efb43450602a05644d7603c18bf265af468cad5804dc9060200160405180910390a150505050565b6014546040516305d3b1d360e41b81527f0000000000000000000000000000000000000000000000000000000000000000600482015267ffffffffffffffff7f00000000000000000000000000000000000000000000000000000000000000001660248201526003604482015263ffffffff9091166064820152600160848201526000907f00000000000000000000000000000000000000000000000000000000000000006001600160a01b031690635d3b1d309060a4016020604051808303816000875af1158015611b4e573d6000803e3d6000fd5b505050506040513d601f19601f82011682018060405250810190611b729190612605565b6040805160e08101825260ff86811682526001600160a01b038681166020808501918252600085870181815260016060880181815289518481528086018b5260808a01908152600360a08b015260c08a018590528b85526011865299909320885181549651935194511515600160b01b0260ff60b01b19951515600160a81b029590951661ffff60a81b1994909816610100026001600160a81b03199097169816979097179490941716939093179290921783559351805195965092949193611c419390850192910190611fcf565b5060a0820151600282015560c090910151600390910180546001600160a01b0319166001600160a01b03909216919091179055601280546001810182556000919091527fbb8a6a4669ba250d26cd7a459eca9d215f8307e33aebe50379bc5a3617ec34440181905560138190556040518181527f0cd21a41891ff04ecd9a8754bec97e2fb85d2a4e7694329d4dc364c796f23d069060200160405180910390a192915050565b600d5460009060ff90811690831603611d2957611d05336002611da3565b600d54611d219061010090046001600160a01b03166002611da3565b506000611d8e565b600d5460ff16611d3a6003846125a0565b611d45906001612587565b60ff1603611d8057600d54611d699061010090046001600160a01b03166004611da3565b50600d5461010090046001600160a01b0316611d8e565b611d8b336004611da3565b50335b600d80546001600160a81b0319169055919050565b8060ff16600003611db2575050565b6001600160a01b038216600090815260106020526040812054905b6000828152600f6020526040902054811015611ed3576000828152600f6020526040902080546001600160a01b038616919083908110611e0f57611e0f6125d6565b6000918252602090912001546001600160a01b031603611ec1576000828152600f602052604090208054611e4590600190612574565b81548110611e5557611e556125d6565b6000918252602080832090910154848352600f909152604090912080546001600160a01b039092169183908110611e8e57611e8e6125d6565b9060005260206000200160006101000a8154816001600160a01b0302191690836001600160a01b03160217905550611ed3565b80611ecb816125ec565b915050611dcd565b508015611f1a576000818152600f60205260409020805480611ef757611ef761264c565b600082815260209020810160001990810180546001600160a01b03191690550190555b6001600160a01b0383166000908152601060205260408120805460ff85169290611f45908490612401565b90915550506001600160a01b038316600090815260106020526040902054600c541015611f89576001600160a01b038316600090815260106020526040902054600c555b50506001600160a01b03166000818152601060209081526040808320548352600f82528220805460018101825590835291200180546001600160a01b0319169091179055565b82805482825590600052602060002090810192821561200a579160200282015b8281111561200a578251825591602001919060010190611fef565b5061201692915061201a565b5090565b5b80821115612016576000815560010161201b565b6000815180845260005b8181101561205557602081850181015186830182015201612039565b506000602082860101526020601f19601f83011685010191505092915050565b602081526000612088602083018461202f565b9392505050565b6000602082840312156120a157600080fd5b81356001600160a01b038116811461208857600080fd5b634e487b7160e01b600052604160045260246000fd5b600080604083850312156120e157600080fd5b8235915060208084013567ffffffffffffffff8082111561210157600080fd5b818601915086601f83011261211557600080fd5b813581811115612127576121276120b8565b8060051b604051601f19603f8301168101818110858211171561214c5761214c6120b8565b60405291825284820192508381018501918983111561216a57600080fd5b938501935b828510156121885784358452938501939285019261216f565b8096505050505050509250929050565b6000602082840312156121aa57600080fd5b813560ff8116811461208857600080fd5b600080604083850312156121ce57600080fd5b50508035926020909101359150565b6000602082840312156121ef57600080fd5b5035919050565b6020808252825182820181905260009190848201906040850190845b818110156122375783516001600160a01b031683529284019291840191600101612212565b50909695505050505050565b634e487b7160e01b600052602160045260246000fd5b602081016002831061227b57634e487b7160e01b600052602160045260246000fd5b91905290565b60ff881681526001600160a01b0387166020808301919091528615156040830152851515606083015260e060808301819052855190830181905260009186810191610100850190845b818110156122e6578451835293830193918301916001016122ca565b505060a085018790526001600160a01b03861660c08601529250612308915050565b98975050505050505050565b60e08152600061232760e083018a61202f565b6001600160a01b038981166020850152881660408401528281036060840152612350818861202f565b6080840196909652505060a081019290925260c090910152949350505050565b600181811c9082168061238457607f821691505b6020821081036123a457634e487b7160e01b600052602260045260246000fd5b50919050565b634e487b7160e01b600052601160045260246000fd5b808202811582820484141761114f5761114f6123aa565b634e487b7160e01b600052601260045260246000fd5b6000826123fc576123fc6123d7565b500490565b8082018082111561114f5761114f6123aa565b60006020828403121561242657600080fd5b8151801515811461208857600080fd5b6020808252601b908201527f5472616e73666572206f66204c5020746f6b656e204661696c65640000000000604082015260600190565b600181815b808511156124a857816000190482111561248e5761248e6123aa565b8085161561249b57918102915b93841c9390800290612472565b509250929050565b6000826124bf5750600161114f565b816124cc5750600061114f565b81600181146124e257600281146124ec57612508565b600191505061114f565b60ff8411156124fd576124fd6123aa565b50506001821b61114f565b5060208310610133831016604e8410600b841016171561252b575081810a61114f565b612535838361246d565b8060001904821115612549576125496123aa565b029392505050565b600061208883836124b0565b60008161256c5761256c6123aa565b506000190190565b8181038181111561114f5761114f6123aa565b60ff818116838216019081111561114f5761114f6123aa565b600060ff8316806125b3576125b36123d7565b8060ff84160691505092915050565b6000826125d1576125d16123d7565b500690565b634e487b7160e01b600052603260045260246000fd5b6000600182016125fe576125fe6123aa565b5060010190565b60006020828403121561261757600080fd5b5051919050565b60008060006060848603121561263357600080fd5b8351925060208401519150604084015190509250925092565b634e487b7160e01b600052603160045260246000fdfea2646970667358221220f0b144d2e2c5074d806e2fa1d12ad3fe1c79429bb3cd5c4701dca223673e1ec264736f6c63430008110033","linkReferences":{}},"methodIdentifiers":{"LPTokenAmount()":"01e079f3","LPTokenAmountOfPlayer(address)":"0db88514","LPTokenDecimals()":"70a423a9","LPTokenSymbol()":"a7b5f8b0","alreadyPlayed(address)":"db40906e","contractGameRequestId(uint256)":"7c8d1a95","contractLPToken()":"40516da3","currentMove()":"ef32f907","currentPlayer()":"4404a438","endTime()":"3197cbb6","fees()":"9af1d35a","getExpectedPoolPrize()":"6e3fed47","getFees()":"db8d55f1","getGame(uint256)":"a2f77bcc","getNumberOfPlayers()":"fd6673f5","getPlayers()":"8b5b9ccc","getPlayersAtScore(uint256)":"bbc6c198","getPoolPrize()":"db5e2d02","getPrizeAmount(address)":"8c0d6cdc","getPrizeShare(address)":"444f682b","getRank(address)":"548c0ef4","getTournament()":"e76c293e","isActive()":"22f3e2d4","isEnded()":"a4fd6f56","isFuture()":"a0aae3dd","isPlayer(address)":"09c95e10","lastRequestId()":"fc2a88c3","name()":"06fdde03","owner()":"8da5cb5b","playAgainstContract(uint8)":"2ac06178","playAgainstPlayer(uint8)":"36cdbcaf","player(address)":"4c54e1b5","players(uint256)":"f71d96cb","playersMap(address)":"979215de","pointsOfPlayer(address)":"218e97f8","protocol()":"8ce74426","rawFulfillRandomWords(uint256,uint256[])":"1fe543e3","requestIds(uint256)":"8796ba8c","resolveVrfGame(uint256)":"7d0774fc","scoreToPlayers(uint256,uint256)":"5d2ae5d3","stakeLPToken()":"26695d96","stakingAllowed()":"abe081b1","startTime()":"78e97925","topScore()":"a73adbc6","unstakeLPToken()":"a5db0c4b","unstakingAllowed()":"724c9b23","withdrawFees()":"476343ee"},"id":0}