{"abi":[{"type":"constructor","inputs":[{"name":"_owner","type":"address","internalType":"address"},{"name":"_name","type":"string","internalType":"string"},{"name":"_poolIncentivized","type":"address","internalType":"address"},{"name":"_rewardToken","type":"address","internalType":"address"},{"name":"_rewardAmount","type":"uint256","internalType":"uint256"},{"name":"_LPTokenAmount","type":"uint256","internalType":"uint256"},{"name":"_startTime","type":"uint256","internalType":"uint256"},{"name":"_endTime","type":"uint256","internalType":"uint256"}],"stateMutability":"nonpayable"},{"type":"function","name":"LPTokenAmount","inputs":[],"outputs":[{"name":"","type":"uint256","internalType":"uint256"}],"stateMutability":"view"},{"type":"function","name":"LPTokenAmountOfPlayer","inputs":[{"name":"_player","type":"address","internalType":"address"}],"outputs":[{"name":"","type":"uint256","internalType":"uint256"}],"stateMutability":"view"},{"type":"function","name":"LPTokenSymbol","inputs":[],"outputs":[{"name":"","type":"string","internalType":"string"}],"stateMutability":"view"},{"type":"function","name":"contractLPToken","inputs":[],"outputs":[{"name":"","type":"uint256","internalType":"uint256"}],"stateMutability":"view"},{"type":"function","name":"endTime","inputs":[],"outputs":[{"name":"","type":"uint256","internalType":"uint256"}],"stateMutability":"view"},{"type":"function","name":"getTournament","inputs":[],"outputs":[{"name":"rName","type":"string","internalType":"string"},{"name":"contractAddress","type":"address","internalType":"address"},{"name":"rPoolIncentivized","type":"address","internalType":"address"},{"name":"rRewardToken","type":"address","internalType":"address"},{"name":"rLPTokenSymbol","type":"string","internalType":"string"},{"name":"rLPTokenAmount","type":"uint256","internalType":"uint256"},{"name":"rRewardTokenSymbol","type":"string","internalType":"string"},{"name":"rRewardAmount","type":"uint256","internalType":"uint256"},{"name":"rStartTime","type":"uint256","internalType":"uint256"},{"name":"rEndTime","type":"uint256","internalType":"uint256"}],"stateMutability":"view"},{"type":"function","name":"isActive","inputs":[],"outputs":[{"name":"","type":"bool","internalType":"bool"}],"stateMutability":"view"},{"type":"function","name":"isEnded","inputs":[],"outputs":[{"name":"","type":"bool","internalType":"bool"}],"stateMutability":"view"},{"type":"function","name":"isFuture","inputs":[],"outputs":[{"name":"","type":"bool","internalType":"bool"}],"stateMutability":"view"},{"type":"function","name":"isPlayer","inputs":[{"name":"_player","type":"address","internalType":"address"}],"outputs":[{"name":"","type":"bool","internalType":"bool"}],"stateMutability":"view"},{"type":"function","name":"livesOfPlayer","inputs":[{"name":"_player","type":"address","internalType":"address"}],"outputs":[{"name":"","type":"uint256","internalType":"uint256"}],"stateMutability":"view"},{"type":"function","name":"name","inputs":[],"outputs":[{"name":"","type":"string","internalType":"string"}],"stateMutability":"view"},{"type":"function","name":"numberOfPlayers","inputs":[],"outputs":[{"name":"","type":"uint256","internalType":"uint256"}],"stateMutability":"view"},{"type":"function","name":"owner","inputs":[],"outputs":[{"name":"","type":"address","internalType":"address"}],"stateMutability":"view"},{"type":"function","name":"playAgainstContract","inputs":[{"name":"_move","type":"string","internalType":"string"}],"outputs":[{"name":"contractMove","type":"uint256","internalType":"uint256"}],"stateMutability":"nonpayable"},{"type":"function","name":"player","inputs":[{"name":"_player","type":"address","internalType":"address"}],"outputs":[{"name":"LPToken","type":"uint256","internalType":"uint256"},{"name":"points","type":"uint256","internalType":"uint256"},{"name":"lastGame","type":"uint256","internalType":"uint256"}],"stateMutability":"view"},{"type":"function","name":"playerToLPToken","inputs":[{"name":"","type":"address","internalType":"address"}],"outputs":[{"name":"","type":"uint256","internalType":"uint256"}],"stateMutability":"view"},{"type":"function","name":"playerToLastGame","inputs":[{"name":"","type":"address","internalType":"address"}],"outputs":[{"name":"","type":"uint256","internalType":"uint256"}],"stateMutability":"view"},{"type":"function","name":"playerToPoints","inputs":[{"name":"","type":"address","internalType":"address"}],"outputs":[{"name":"","type":"uint256","internalType":"uint256"}],"stateMutability":"view"},{"type":"function","name":"pointsOfPlayer","inputs":[{"name":"_player","type":"address","internalType":"address"}],"outputs":[{"name":"","type":"uint256","internalType":"uint256"}],"stateMutability":"view"},{"type":"function","name":"resolveBatch","inputs":[],"outputs":[],"stateMutability":"nonpayable"},{"type":"function","name":"rewardAmount","inputs":[],"outputs":[{"name":"","type":"uint256","internalType":"uint256"}],"stateMutability":"view"},{"type":"function","name":"rewardTokenAmountOfPlayer","inputs":[{"name":"_player","type":"address","internalType":"address"}],"outputs":[{"name":"","type":"uint256","internalType":"uint256"}],"stateMutability":"view"},{"type":"function","name":"rewardTokenSymbol","inputs":[],"outputs":[{"name":"","type":"string","internalType":"string"}],"stateMutability":"view"},{"type":"function","name":"stakeLPToken","inputs":[],"outputs":[],"stateMutability":"nonpayable"},{"type":"function","name":"stakingAllowed","inputs":[],"outputs":[{"name":"","type":"bool","internalType":"bool"}],"stateMutability":"view"},{"type":"function","name":"startTime","inputs":[],"outputs":[{"name":"","type":"uint256","internalType":"uint256"}],"stateMutability":"view"},{"type":"function","name":"totalUnconvertedPoints","inputs":[],"outputs":[{"name":"","type":"uint256","internalType":"uint256"}],"stateMutability":"view"},{"type":"function","name":"unstakeLPToken","inputs":[],"outputs":[],"stateMutability":"nonpayable"},{"type":"function","name":"unstakingAllowed","inputs":[],"outputs":[{"name":"","type":"bool","internalType":"bool"}],"stateMutability":"view"},{"type":"event","name":"Staked","inputs":[],"anonymous":false},{"type":"event","name":"Unstaked","inputs":[],"anonymous":false}],"bytecode":{"object":"0x60a06040523480156200001157600080fd5b5060405162000f3c38038062000f3c83398101604081905262000034916200029c565b6001600160a01b03881660805260036200004f8882620003cb565b506001600160a01b03851615620000f557600680546001600160a01b0319166001600160a01b038716908117909155604080516395d89b4160e01b815290516395d89b41916004808201926000929091908290030181865afa158015620000ba573d6000803e3d6000fd5b505050506040513d6000823e601f3d908101601f19168201604052620000e4919081019062000497565b600790620000f39082620003cb565b505b6008849055600a8390556001600160a01b03861615620001a457600580546001600160a01b0319166001600160a01b038816908117909155604080516395d89b4160e01b815290516395d89b41916004808201926000929091908290030181865afa15801562000169573d6000803e3d6000fd5b505050506040513d6000823e601f3d908101601f1916820160405262000193919081019062000497565b600990620001a29082620003cb565b505b600b91909155600c5550620004d7945050505050565b80516001600160a01b0381168114620001d257600080fd5b919050565b634e487b7160e01b600052604160045260246000fd5b600082601f830112620001ff57600080fd5b81516001600160401b03808211156200021c576200021c620001d7565b604051601f8301601f19908116603f01168101908282118183101715620002475762000247620001d7565b816040528381526020925086838588010111156200026457600080fd5b600091505b8382101562000288578582018301518183018401529082019062000269565b600093810190920192909252949350505050565b600080600080600080600080610100898b031215620002ba57600080fd5b620002c589620001ba565b60208a01519098506001600160401b03811115620002e257600080fd5b620002f08b828c01620001ed565b9750506200030160408a01620001ba565b95506200031160608a01620001ba565b94506080890151935060a0890151925060c0890151915060e089015190509295985092959890939650565b600181811c908216806200035157607f821691505b6020821081036200037257634e487b7160e01b600052602260045260246000fd5b50919050565b601f821115620003c657600081815260208120601f850160051c81016020861015620003a15750805b601f850160051c820191505b81811015620003c257828155600101620003ad565b5050505b505050565b81516001600160401b03811115620003e757620003e7620001d7565b620003ff81620003f884546200033c565b8462000378565b602080601f8311600181146200043757600084156200041e5750858301515b600019600386901b1c1916600185901b178555620003c2565b600085815260208120601f198616915b82811015620004685788860151825594840194600190910190840162000447565b5085821015620004875787850151600019600388901b60f8161c191681555b5050505050600190811b01905550565b600060208284031215620004aa57600080fd5b81516001600160401b03811115620004c157600080fd5b620004cf84828501620001ed565b949350505050565b608051610a49620004f360003960006102f20152610a496000f3fe608060405234801561001057600080fd5b50600436106101da5760003560e01c8063724c9b2311610104578063a7b5f8b0116100a2578063df8218b911610071578063df8218b914610365578063e76c293e14610373578063f7b2a7be14610391578063f87b1f551461039a57600080fd5b8063a7b5f8b01461033d578063abe081b114610267578063b26c1c2714610345578063d37d01ad146101df57600080fd5b806396e16a33116100de57806396e16a331461032c578063a0aae3dd14610267578063a4fd6f5614610267578063a5db0c4b1461033557600080fd5b8063724c9b231461026757806378e97925146102e45780638da5cb5b146102ed57600080fd5b806322f3e2d41161017c57806340516da31161014b57806340516da3146102a15780634c54e1b5146102aa5780635ecf9464146102965780636f4bda17146102dd57600080fd5b806322f3e2d414610267578063252934bd1461026e57806326695d961461028e5780633197cbb61461029857600080fd5b806309c95e10116101b857806309c95e10146102245780630c0b8e5f1461025f5780630db88514146101df578063218e97f8146101df57600080fd5b806301a2033e146101df57806301e079f31461020657806306fdde031461020f575b600080fd5b6101f36101ed3660046107ba565b50600090565b6040519081526020015b60405180910390f35b6101f3600a5481565b6102176103ba565b6040516101fd9190610830565b61024f6102323660046107ba565b6001600160a01b0316600090815260208190526040902054151590565b60405190151581526020016101fd565b610217610448565b600061024f565b6101f361027c3660046107ba565b60026020526000908152604090205481565b610296610455565b005b6101f3600c5481565b6101f360045481565b6102c26102b83660046107ba565b5060009081908190565b604080519384526020840192909252908201526060016101fd565b60006101f3565b6101f3600b5481565b6103147f000000000000000000000000000000000000000000000000000000000000000081565b6040516001600160a01b0390911681526020016101fd565b6101f3600d5481565b610296610576565b6102176105a1565b6101f36103533660046107ba565b60006020819052908152604090205481565b6101f36101ed366004610859565b61037b6105ae565b6040516101fd9a9998979695949392919061090a565b6101f360085481565b6101f36103a83660046107ba565b60016020526000908152604090205481565b600380546103c790610990565b80601f01602080910402602001604051908101604052809291908181526020018280546103f390610990565b80156104405780601f1061041557610100808354040283529160200191610440565b820191906000526020600020905b81548152906001019060200180831161042357829003601f168201915b505050505081565b600780546103c790610990565b600554600a546040516323b872dd60e01b815233600482015230602482015260448101919091526001600160a01b03909116906323b872dd906064016020604051808303816000875af11580156104b0573d6000803e3d6000fd5b505050506040513d601f19601f820116820180604052508101906104d491906109ca565b6105245760405162461bcd60e51b815260206004820152601b60248201527f5472616e73666572206f66204c5020746f6b656e204661696c65640000000000604482015260640160405180910390fd5b600a5433600090815260208190526040812080549091906105469084906109ec565b90915550506040517f7c8034b0915ddb06daf1c98814ae561303379b3db725b973ef0d14ea2c923d5c90600090a1565b6040517f223cba103b37553fa55d92837815b881061ed40ebf54193471d8edb521b95df590600090a1565b600980546103c790610990565b606060008060006060600060606000806000600380546105cd90610990565b80601f01602080910402602001604051908101604052809291908181526020018280546105f990610990565b80156106465780601f1061061b57610100808354040283529160200191610646565b820191906000526020600020905b81548152906001019060200180831161062957829003601f168201915b50505050509950309850600560009054906101000a90046001600160a01b03169750600660009054906101000a90046001600160a01b031696506009805461068d90610990565b80601f01602080910402602001604051908101604052809291908181526020018280546106b990610990565b80156107065780601f106106db57610100808354040283529160200191610706565b820191906000526020600020905b8154815290600101906020018083116106e957829003601f168201915b50505050509550600a5494506007805461071f90610990565b80601f016020809104026020016040519081016040528092919081815260200182805461074b90610990565b80156107985780601f1061076d57610100808354040283529160200191610798565b820191906000526020600020905b81548152906001019060200180831161077b57829003601f168201915b505050505093506008549250600b549150600c54905090919293949596979899565b6000602082840312156107cc57600080fd5b81356001600160a01b03811681146107e357600080fd5b9392505050565b6000815180845260005b81811015610810576020818501810151868301820152016107f4565b506000602082860101526020601f19601f83011685010191505092915050565b6020815260006107e360208301846107ea565b634e487b7160e01b600052604160045260246000fd5b60006020828403121561086b57600080fd5b813567ffffffffffffffff8082111561088357600080fd5b818401915084601f83011261089757600080fd5b8135818111156108a9576108a9610843565b604051601f8201601f19908116603f011681019083821181831017156108d1576108d1610843565b816040528281528760208487010111156108ea57600080fd5b826020860160208301376000928101602001929092525095945050505050565b600061014080835261091e8184018e6107ea565b6001600160a01b038d811660208601528c811660408601528b16606085015283810360808501529050610951818a6107ea565b90508760a084015282810360c084015261096b81886107ea565b60e0840196909652505061010081019290925261012090910152979650505050505050565b600181811c908216806109a457607f821691505b6020821081036109c457634e487b7160e01b600052602260045260246000fd5b50919050565b6000602082840312156109dc57600080fd5b815180151581146107e357600080fd5b80820180821115610a0d57634e487b7160e01b600052601160045260246000fd5b9291505056fea2646970667358221220bec7e775482bd68c7cd7509f399bccaf0e6b78c226b34a8b9137e21aea45c03364736f6c63430008110033","linkReferences":{}},"methodIdentifiers":{"LPTokenAmount()":"01e079f3","LPTokenAmountOfPlayer(address)":"0db88514","LPTokenSymbol()":"a7b5f8b0","contractLPToken()":"40516da3","endTime()":"3197cbb6","getTournament()":"e76c293e","isActive()":"22f3e2d4","isEnded()":"a4fd6f56","isFuture()":"a0aae3dd","isPlayer(address)":"09c95e10","livesOfPlayer(address)":"d37d01ad","name()":"06fdde03","numberOfPlayers()":"6f4bda17","owner()":"8da5cb5b","playAgainstContract(string)":"df8218b9","player(address)":"4c54e1b5","playerToLPToken(address)":"b26c1c27","playerToLastGame(address)":"252934bd","playerToPoints(address)":"f87b1f55","pointsOfPlayer(address)":"218e97f8","resolveBatch()":"5ecf9464","rewardAmount()":"f7b2a7be","rewardTokenAmountOfPlayer(address)":"01a2033e","rewardTokenSymbol()":"0c0b8e5f","stakeLPToken()":"26695d96","stakingAllowed()":"abe081b1","startTime()":"78e97925","totalUnconvertedPoints()":"96e16a33","unstakeLPToken()":"a5db0c4b","unstakingAllowed()":"724c9b23"},"id":5}