{
  "address": "0x1a3635B922D4e893F511228A01650906370269f5",
  "abi": [
    {
      "inputs": [
        {
          "internalType": "address",
          "name": "_token0",
          "type": "address"
        },
        {
          "internalType": "address",
          "name": "_token1",
          "type": "address"
        }
      ],
      "stateMutability": "nonpayable",
      "type": "constructor"
    },
    {
      "anonymous": false,
      "inputs": [
        {
          "indexed": true,
          "internalType": "address",
          "name": "owner",
          "type": "address"
        },
        {
          "indexed": true,
          "internalType": "address",
          "name": "spender",
          "type": "address"
        },
        {
          "indexed": false,
          "internalType": "uint256",
          "name": "value",
          "type": "uint256"
        }
      ],
      "name": "Approval",
      "type": "event"
    },
    {
      "anonymous": false,
      "inputs": [
        {
          "indexed": true,
          "internalType": "address",
          "name": "from",
          "type": "address"
        },
        {
          "indexed": true,
          "internalType": "address",
          "name": "to",
          "type": "address"
        },
        {
          "indexed": false,
          "internalType": "uint256",
          "name": "value",
          "type": "uint256"
        }
      ],
      "name": "Transfer",
      "type": "event"
    },
    {
      "inputs": [
        {
          "internalType": "address",
          "name": "owner",
          "type": "address"
        },
        {
          "internalType": "address",
          "name": "spender",
          "type": "address"
        }
      ],
      "name": "allowance",
      "outputs": [
        {
          "internalType": "uint256",
          "name": "",
          "type": "uint256"
        }
      ],
      "stateMutability": "view",
      "type": "function"
    },
    {
      "inputs": [
        {
          "internalType": "address",
          "name": "spender",
          "type": "address"
        },
        {
          "internalType": "uint256",
          "name": "amount",
          "type": "uint256"
        }
      ],
      "name": "approve",
      "outputs": [
        {
          "internalType": "bool",
          "name": "",
          "type": "bool"
        }
      ],
      "stateMutability": "nonpayable",
      "type": "function"
    },
    {
      "inputs": [
        {
          "internalType": "address",
          "name": "account",
          "type": "address"
        }
      ],
      "name": "balanceOf",
      "outputs": [
        {
          "internalType": "uint256",
          "name": "",
          "type": "uint256"
        }
      ],
      "stateMutability": "view",
      "type": "function"
    },
    {
      "inputs": [],
      "name": "decimals",
      "outputs": [
        {
          "internalType": "uint8",
          "name": "",
          "type": "uint8"
        }
      ],
      "stateMutability": "view",
      "type": "function"
    },
    {
      "inputs": [
        {
          "internalType": "address",
          "name": "spender",
          "type": "address"
        },
        {
          "internalType": "uint256",
          "name": "subtractedValue",
          "type": "uint256"
        }
      ],
      "name": "decreaseAllowance",
      "outputs": [
        {
          "internalType": "bool",
          "name": "",
          "type": "bool"
        }
      ],
      "stateMutability": "nonpayable",
      "type": "function"
    },
    {
      "inputs": [],
      "name": "getReserves",
      "outputs": [
        {
          "internalType": "uint112",
          "name": "",
          "type": "uint112"
        },
        {
          "internalType": "uint112",
          "name": "",
          "type": "uint112"
        },
        {
          "internalType": "uint32",
          "name": "",
          "type": "uint32"
        }
      ],
      "stateMutability": "view",
      "type": "function"
    },
    {
      "inputs": [
        {
          "internalType": "address",
          "name": "spender",
          "type": "address"
        },
        {
          "internalType": "uint256",
          "name": "addedValue",
          "type": "uint256"
        }
      ],
      "name": "increaseAllowance",
      "outputs": [
        {
          "internalType": "bool",
          "name": "",
          "type": "bool"
        }
      ],
      "stateMutability": "nonpayable",
      "type": "function"
    },
    {
      "inputs": [],
      "name": "name",
      "outputs": [
        {
          "internalType": "string",
          "name": "",
          "type": "string"
        }
      ],
      "stateMutability": "view",
      "type": "function"
    },
    {
      "inputs": [
        {
          "internalType": "uint112",
          "name": "_reserve0",
          "type": "uint112"
        },
        {
          "internalType": "uint112",
          "name": "_reserve1",
          "type": "uint112"
        }
      ],
      "name": "setReserves",
      "outputs": [],
      "stateMutability": "nonpayable",
      "type": "function"
    },
    {
      "inputs": [
        {
          "internalType": "uint256",
          "name": "_supply",
          "type": "uint256"
        }
      ],
      "name": "setTotalSupply",
      "outputs": [],
      "stateMutability": "nonpayable",
      "type": "function"
    },
    {
      "inputs": [],
      "name": "symbol",
      "outputs": [
        {
          "internalType": "string",
          "name": "",
          "type": "string"
        }
      ],
      "stateMutability": "view",
      "type": "function"
    },
    {
      "inputs": [],
      "name": "token0",
      "outputs": [
        {
          "internalType": "address",
          "name": "",
          "type": "address"
        }
      ],
      "stateMutability": "view",
      "type": "function"
    },
    {
      "inputs": [],
      "name": "token1",
      "outputs": [
        {
          "internalType": "address",
          "name": "",
          "type": "address"
        }
      ],
      "stateMutability": "view",
      "type": "function"
    },
    {
      "inputs": [],
      "name": "totalSupply",
      "outputs": [
        {
          "internalType": "uint256",
          "name": "",
          "type": "uint256"
        }
      ],
      "stateMutability": "view",
      "type": "function"
    },
    {
      "inputs": [
        {
          "internalType": "address",
          "name": "to",
          "type": "address"
        },
        {
          "internalType": "uint256",
          "name": "amount",
          "type": "uint256"
        }
      ],
      "name": "transfer",
      "outputs": [
        {
          "internalType": "bool",
          "name": "",
          "type": "bool"
        }
      ],
      "stateMutability": "nonpayable",
      "type": "function"
    },
    {
      "inputs": [
        {
          "internalType": "address",
          "name": "from",
          "type": "address"
        },
        {
          "internalType": "address",
          "name": "to",
          "type": "address"
        },
        {
          "internalType": "uint256",
          "name": "amount",
          "type": "uint256"
        }
      ],
      "name": "transferFrom",
      "outputs": [
        {
          "internalType": "bool",
          "name": "",
          "type": "bool"
        }
      ],
      "stateMutability": "nonpayable",
      "type": "function"
    }
  ],
  "transactionHash": "0x58f69c06ff766a9bfecacd389b5caaa4ed61b00e44e471b9142d875a2592371e",
  "args": [
    "0x71e3c9E482fdCaF73D129F96663d1cd5721AFaD3",
    "0xd1eed1F04EAfE3467c8Cf0E5C1FFDCBc0a40D97A"
  ],
  "numDeployments": 1,
  "solcInputHash": "b41618dec32ce7bd276dd135aaea4438",
  "bytecode": "0x608034620004535762001060906001600160401b0390601f601f19388590038281018216840190858211858310176200035557808591604098899485528339810103126200045357620000528362000478565b9062000062602080950162000478565b906200006d62000458565b95600a8752692ab734b9bbb0b8102b1960b11b868801526200008e62000458565b9660068852652aa72496ab1960d11b87890152805190828211620003555760039182546001928382811c9216801562000448575b8b8310146200043257818a849311620003dc575b508a908a831160011462000377576000926200036b575b505060001982851b1c191690821b1782555b8851928311620003555760049889548281811c911680156200034a575b8a8210146200033557888111620002ea575b50889088851160011462000281578495509084929160009562000275575b50501b92600019911b1c19161785555b600580546001600160e01b031916763635c9adc5dea0000000000000003635c9adc5dea00000179055600680546001600160a01b03199081166001600160a01b039485161790915560078054909116919092161790553315620002365750600254683635c9adc5dea00000928382018092116200022157506000917fddf252ad1be2c89b69c2b068fc378daa952ba7f163c4a11628f55a4df523b3ef9160025533835282815284832084815401905584519384523393a351610bd290816200048e8239f35b601190634e487b7160e01b6000525260246000fd5b90606493519262461bcd60e51b845283015260248201527f45524332303a206d696e7420746f20746865207a65726f2061646472657373006044820152fd5b0151935038806200014c565b9291948416928a600052848a6000209460005b8c89838310620002d25750505010620002b7575b50505050811b0185556200015c565b01519060f884600019921b161c1916905538808080620002a8565b86860151895590970196948501948893500162000294565b8a600052896000208980870160051c8201928c88106200032b575b0160051c019083905b8281106200031e5750506200012e565b600081550183906200030e565b9250819262000305565b60228b634e487b7160e01b6000525260246000fd5b90607f16906200011c565b634e487b7160e01b600052604160045260246000fd5b015190503880620000ed565b908785941691866000528c600020928d6000905b828210620003c45750508411620003ab575b505050811b018255620000ff565b015160001983871b60f8161c191690553880806200039d565b83850151865588979095019493840193018e6200038b565b909150846000528a6000208a80850160051c8201928d861062000428575b918691869594930160051c01915b82811062000418575050620000d6565b6000815585945086910162000408565b92508192620003fa565b634e487b7160e01b600052602260045260246000fd5b91607f1691620000c2565b600080fd5b60408051919082016001600160401b038111838210176200035557604052565b51906001600160a01b0382168203620004535756fe608060408181526004908136101561001657600080fd5b600092833560e01c90816306fdde03146107a9575080630902f1ac14610745578063095ea7b31461071b5780630dfe1681146106f257806318160ddd146106d357806323b872dd14610609578063313ce567146105ed578063395093511461059d57806370a082311461056657806375ea5f2e1461051057806395d89b41146103f0578063a457c2d714610349578063a9059cbb14610318578063d21220a7146102ef578063dd62ed3e146102a25763f7ea7a3d146100d457600080fd5b3461029e576020908160031936011261029a57823560025480821160001461019957506101046002548092610b8f565b9333156101565750917fddf252ad1be2c89b69c2b068fc378daa952ba7f163c4a11628f55a4df523b3ef9161013a8587956108fc565b600255338452838252808420858154019055519384523393a380f35b825162461bcd60e51b8152908101849052601f60248201527f45524332303a206d696e7420746f20746865207a65726f2061646472657373006044820152606490fd5b906101a391610b8f565b92331561024f5733855284835281852054908482106102015750917fddf252ad1be2c89b69c2b068fc378daa952ba7f163c4a11628f55a4df523b3ef918486959433875286845203818620558360025403600255519283523392a380f35b825162461bcd60e51b8152908101849052602260248201527f45524332303a206275726e20616d6f756e7420657863656564732062616c616e604482015261636560f01b6064820152608490fd5b82608492519162461bcd60e51b8352820152602160248201527f45524332303a206275726e2066726f6d20746865207a65726f206164647265736044820152607360f81b6064820152fd5b8380fd5b8280fd5b8382346102eb57806003193601126102eb57806020926102c06108cb565b6102c86108e6565b6001600160a01b0391821683526001865283832091168252845220549051908152f35b5080fd5b8382346102eb57816003193601126102eb5760075490516001600160a01b039091168152602090f35b8382346102eb57806003193601126102eb576020906103426103386108cb565b602435903361091f565b5160018152f35b5091346103ed57826003193601126103ed576103636108cb565b918360243592338152600160205281812060018060a01b038616825260205220549082821061039c576020856103428585038733610a8d565b608490602086519162461bcd60e51b8352820152602560248201527f45524332303a2064656372656173656420616c6c6f77616e63652062656c6f77604482015264207a65726f60d81b6064820152fd5b80fd5b508290346102eb57816003193601126102eb57805190828454600181811c90808316928315610506575b60209384841081146104f3578388529081156104d75750600114610482575b505050829003601f01601f191682019267ffffffffffffffff84118385101761046f575082918261046b925282610882565b0390f35b634e487b7160e01b815260418552602490fd5b8787529192508591837f8a35acfbc15ff81a39ae7d344fd709f28e8600b4aa8c65c6b64bfe7fe36bd19b5b8385106104c35750505050830101858080610439565b8054888601830152930192849082016104ad565b60ff1916878501525050151560051b8401019050858080610439565b634e487b7160e01b895260228a52602489fd5b91607f169161041a565b503461029e573660031901126102eb57356001600160701b039081811680910361029e57602435918216820361029e57600554916001600160701b0360701b9060701b169163ffffffff60e01b16171760055580f35b8382346102eb5760203660031901126102eb5760209181906001600160a01b0361058e6108cb565b16815280845220549051908152f35b8382346102eb57806003193601126102eb576103426020926105e66105c06108cb565b338352600186528483206001600160a01b038216845286529184902054602435906108fc565b9033610a8d565b8382346102eb57816003193601126102eb576020905160128152f35b509190346102eb5760603660031901126102eb576106256108cb565b61062d6108e6565b91846044359460018060a01b038416815260016020528181203382526020522054906000198203610667575b60208661034287878761091f565b84821061069057509183916106856020969561034295033383610a8d565b919394819350610659565b606490602087519162461bcd60e51b8352820152601d60248201527f45524332303a20696e73756666696369656e7420616c6c6f77616e63650000006044820152fd5b8382346102eb57816003193601126102eb576020906002549051908152f35b8382346102eb57816003193601126102eb5760065490516001600160a01b039091168152602090f35b8382346102eb57806003193601126102eb5760209061034261073b6108cb565b6024359033610a8d565b508290346102eb57816003193601126102eb5763ffffffff603b198142160192818411610796575060609350600554928251936001600160701b0390818116865260701c1660208501521690820152f35b634e487b7160e01b815260118552602490fd5b905083913461029e578260031936011261029e5782600354600181811c90808316928315610878575b60209384841081146104f3578388529081156104d7575060011461082257505050829003601f01601f191682019267ffffffffffffffff84118385101761046f575082918261046b925282610882565b600387529192508591837fc2575a0e9e593c00f959f8c92f12db2869c3395a3b0502d05e2516446f71f85b5b8385106108645750505050830101858080610439565b80548886018301529301928490820161084e565b91607f16916107d2565b6020808252825181830181905290939260005b8281106108b757505060409293506000838284010152601f8019910116010190565b818101860151848201604001528501610895565b600435906001600160a01b03821682036108e157565b600080fd5b602435906001600160a01b03821682036108e157565b9190820180921161090957565b634e487b7160e01b600052601160045260246000fd5b6001600160a01b03908116918215610a3a57169182156109e95760008281528060205260408120549180831061099557604082827fddf252ad1be2c89b69c2b068fc378daa952ba7f163c4a11628f55a4df523b3ef958760209652828652038282205586815220818154019055604051908152a3565b60405162461bcd60e51b815260206004820152602660248201527f45524332303a207472616e7366657220616d6f756e7420657863656564732062604482015265616c616e636560d01b6064820152608490fd5b60405162461bcd60e51b815260206004820152602360248201527f45524332303a207472616e7366657220746f20746865207a65726f206164647260448201526265737360e81b6064820152608490fd5b60405162461bcd60e51b815260206004820152602560248201527f45524332303a207472616e736665722066726f6d20746865207a65726f206164604482015264647265737360d81b6064820152608490fd5b6001600160a01b03908116918215610b3e5716918215610aee5760207f8c5be1e5ebec7d5bd14f71427d1e84f3dd0314c0f7b2291e5b200ac8c7c3b925918360005260018252604060002085600052825280604060002055604051908152a3565b60405162461bcd60e51b815260206004820152602260248201527f45524332303a20617070726f766520746f20746865207a65726f206164647265604482015261737360f01b6064820152608490fd5b60405162461bcd60e51b8152602060048201526024808201527f45524332303a20617070726f76652066726f6d20746865207a65726f206164646044820152637265737360e01b6064820152608490fd5b919082039182116109095756fea2646970667358221220b0b800645d7d3ec3a63a2a6abdfd98e75b6c0c5a0564aeb9e270353109f6d74064736f6c63430008110033",
  "devdoc": {
    "kind": "dev",
    "methods": {
      "allowance(address,address)": {
        "details": "See {IERC20-allowance}."
      },
      "approve(address,uint256)": {
        "details": "See {IERC20-approve}. NOTE: If `amount` is the maximum `uint256`, the allowance is not updated on `transferFrom`. This is semantically equivalent to an infinite approval. Requirements: - `spender` cannot be the zero address."
      },
      "balanceOf(address)": {
        "details": "See {IERC20-balanceOf}."
      },
      "decimals()": {
        "details": "Returns the number of decimals used to get its user representation. For example, if `decimals` equals `2`, a balance of `505` tokens should be displayed to a user as `5.05` (`505 / 10 ** 2`). Tokens usually opt for a value of 18, imitating the relationship between Ether and Wei. This is the default value returned by this function, unless it's overridden. NOTE: This information is only used for _display_ purposes: it in no way affects any of the arithmetic of the contract, including {IERC20-balanceOf} and {IERC20-transfer}."
      },
      "decreaseAllowance(address,uint256)": {
        "details": "Atomically decreases the allowance granted to `spender` by the caller. This is an alternative to {approve} that can be used as a mitigation for problems described in {IERC20-approve}. Emits an {Approval} event indicating the updated allowance. Requirements: - `spender` cannot be the zero address. - `spender` must have allowance for the caller of at least `subtractedValue`."
      },
      "increaseAllowance(address,uint256)": {
        "details": "Atomically increases the allowance granted to `spender` by the caller. This is an alternative to {approve} that can be used as a mitigation for problems described in {IERC20-approve}. Emits an {Approval} event indicating the updated allowance. Requirements: - `spender` cannot be the zero address."
      },
      "name()": {
        "details": "Returns the name of the token."
      },
      "symbol()": {
        "details": "Returns the symbol of the token, usually a shorter version of the name."
      },
      "totalSupply()": {
        "details": "See {IERC20-totalSupply}."
      },
      "transfer(address,uint256)": {
        "details": "See {IERC20-transfer}. Requirements: - `to` cannot be the zero address. - the caller must have a balance of at least `amount`."
      },
      "transferFrom(address,address,uint256)": {
        "details": "See {IERC20-transferFrom}. Emits an {Approval} event indicating the updated allowance. This is not required by the EIP. See the note at the beginning of {ERC20}. NOTE: Does not update the allowance if the current allowance is the maximum `uint256`. Requirements: - `from` and `to` cannot be the zero address. - `from` must have a balance of at least `amount`. - the caller must have allowance for ``from``'s tokens of at least `amount`."
      }
    },
    "version": 1
  },
  "userdoc": {
    "kind": "user",
    "methods": {},
    "version": 1
  },
  "storageLayout": {
    "storage": [
      {
        "astId": 2255,
        "contract": "contracts/UniswapV2Pair.sol:UniswapV2Pair",
        "label": "_balances",
        "offset": 0,
        "slot": "0",
        "type": "t_mapping(t_address,t_uint256)"
      },
      {
        "astId": 2261,
        "contract": "contracts/UniswapV2Pair.sol:UniswapV2Pair",
        "label": "_allowances",
        "offset": 0,
        "slot": "1",
        "type": "t_mapping(t_address,t_mapping(t_address,t_uint256))"
      },
      {
        "astId": 2263,
        "contract": "contracts/UniswapV2Pair.sol:UniswapV2Pair",
        "label": "_totalSupply",
        "offset": 0,
        "slot": "2",
        "type": "t_uint256"
      },
      {
        "astId": 2265,
        "contract": "contracts/UniswapV2Pair.sol:UniswapV2Pair",
        "label": "_name",
        "offset": 0,
        "slot": "3",
        "type": "t_string_storage"
      },
      {
        "astId": 2267,
        "contract": "contracts/UniswapV2Pair.sol:UniswapV2Pair",
        "label": "_symbol",
        "offset": 0,
        "slot": "4",
        "type": "t_string_storage"
      },
      {
        "astId": 6312,
        "contract": "contracts/UniswapV2Pair.sol:UniswapV2Pair",
        "label": "reserve0",
        "offset": 0,
        "slot": "5",
        "type": "t_uint112"
      },
      {
        "astId": 6315,
        "contract": "contracts/UniswapV2Pair.sol:UniswapV2Pair",
        "label": "reserve1",
        "offset": 14,
        "slot": "5",
        "type": "t_uint112"
      },
      {
        "astId": 6317,
        "contract": "contracts/UniswapV2Pair.sol:UniswapV2Pair",
        "label": "token0",
        "offset": 0,
        "slot": "6",
        "type": "t_address"
      },
      {
        "astId": 6319,
        "contract": "contracts/UniswapV2Pair.sol:UniswapV2Pair",
        "label": "token1",
        "offset": 0,
        "slot": "7",
        "type": "t_address"
      }
    ],
    "types": {
      "t_address": {
        "encoding": "inplace",
        "label": "address",
        "numberOfBytes": "20"
      },
      "t_mapping(t_address,t_mapping(t_address,t_uint256))": {
        "encoding": "mapping",
        "key": "t_address",
        "label": "mapping(address => mapping(address => uint256))",
        "numberOfBytes": "32",
        "value": "t_mapping(t_address,t_uint256)"
      },
      "t_mapping(t_address,t_uint256)": {
        "encoding": "mapping",
        "key": "t_address",
        "label": "mapping(address => uint256)",
        "numberOfBytes": "32",
        "value": "t_uint256"
      },
      "t_string_storage": {
        "encoding": "bytes",
        "label": "string",
        "numberOfBytes": "32"
      },
      "t_uint112": {
        "encoding": "inplace",
        "label": "uint112",
        "numberOfBytes": "14"
      },
      "t_uint256": {
        "encoding": "inplace",
        "label": "uint256",
        "numberOfBytes": "32"
      }
    }
  }
}