{
  "address": "0xE8101189B793c238e912fe61d25CF23Ecb68D87B",
  "abi": [
    {
      "inputs": [
        {
          "internalType": "address",
          "name": "_token",
          "type": "address"
        }
      ],
      "stateMutability": "nonpayable",
      "type": "constructor"
    },
    {
      "anonymous": false,
      "inputs": [
        {
          "indexed": true,
          "internalType": "address",
          "name": "owner",
          "type": "address"
        },
        {
          "indexed": true,
          "internalType": "address",
          "name": "spender",
          "type": "address"
        },
        {
          "indexed": false,
          "internalType": "uint256",
          "name": "value",
          "type": "uint256"
        }
      ],
      "name": "Approval",
      "type": "event"
    },
    {
      "anonymous": false,
      "inputs": [
        {
          "indexed": true,
          "internalType": "address",
          "name": "from",
          "type": "address"
        },
        {
          "indexed": true,
          "internalType": "address",
          "name": "to",
          "type": "address"
        },
        {
          "indexed": false,
          "internalType": "uint256",
          "name": "value",
          "type": "uint256"
        }
      ],
      "name": "Transfer",
      "type": "event"
    },
    {
      "inputs": [
        {
          "internalType": "address",
          "name": "owner",
          "type": "address"
        },
        {
          "internalType": "address",
          "name": "spender",
          "type": "address"
        }
      ],
      "name": "allowance",
      "outputs": [
        {
          "internalType": "uint256",
          "name": "",
          "type": "uint256"
        }
      ],
      "stateMutability": "view",
      "type": "function"
    },
    {
      "inputs": [
        {
          "internalType": "address",
          "name": "spender",
          "type": "address"
        },
        {
          "internalType": "uint256",
          "name": "amount",
          "type": "uint256"
        }
      ],
      "name": "approve",
      "outputs": [
        {
          "internalType": "bool",
          "name": "",
          "type": "bool"
        }
      ],
      "stateMutability": "nonpayable",
      "type": "function"
    },
    {
      "inputs": [
        {
          "internalType": "address",
          "name": "account",
          "type": "address"
        }
      ],
      "name": "balanceOf",
      "outputs": [
        {
          "internalType": "uint256",
          "name": "",
          "type": "uint256"
        }
      ],
      "stateMutability": "view",
      "type": "function"
    },
    {
      "inputs": [],
      "name": "decimals",
      "outputs": [
        {
          "internalType": "uint8",
          "name": "",
          "type": "uint8"
        }
      ],
      "stateMutability": "view",
      "type": "function"
    },
    {
      "inputs": [
        {
          "internalType": "address",
          "name": "spender",
          "type": "address"
        },
        {
          "internalType": "uint256",
          "name": "subtractedValue",
          "type": "uint256"
        }
      ],
      "name": "decreaseAllowance",
      "outputs": [
        {
          "internalType": "bool",
          "name": "",
          "type": "bool"
        }
      ],
      "stateMutability": "nonpayable",
      "type": "function"
    },
    {
      "inputs": [
        {
          "internalType": "address",
          "name": "spender",
          "type": "address"
        },
        {
          "internalType": "uint256",
          "name": "addedValue",
          "type": "uint256"
        }
      ],
      "name": "increaseAllowance",
      "outputs": [
        {
          "internalType": "bool",
          "name": "",
          "type": "bool"
        }
      ],
      "stateMutability": "nonpayable",
      "type": "function"
    },
    {
      "inputs": [],
      "name": "name",
      "outputs": [
        {
          "internalType": "string",
          "name": "",
          "type": "string"
        }
      ],
      "stateMutability": "view",
      "type": "function"
    },
    {
      "inputs": [],
      "name": "pricePerShare",
      "outputs": [
        {
          "internalType": "uint256",
          "name": "",
          "type": "uint256"
        }
      ],
      "stateMutability": "view",
      "type": "function"
    },
    {
      "inputs": [
        {
          "internalType": "uint256",
          "name": "_pricePerShare",
          "type": "uint256"
        }
      ],
      "name": "setPricePerShare",
      "outputs": [],
      "stateMutability": "nonpayable",
      "type": "function"
    },
    {
      "inputs": [],
      "name": "symbol",
      "outputs": [
        {
          "internalType": "string",
          "name": "",
          "type": "string"
        }
      ],
      "stateMutability": "view",
      "type": "function"
    },
    {
      "inputs": [],
      "name": "token",
      "outputs": [
        {
          "internalType": "address",
          "name": "",
          "type": "address"
        }
      ],
      "stateMutability": "view",
      "type": "function"
    },
    {
      "inputs": [],
      "name": "totalSupply",
      "outputs": [
        {
          "internalType": "uint256",
          "name": "",
          "type": "uint256"
        }
      ],
      "stateMutability": "view",
      "type": "function"
    },
    {
      "inputs": [
        {
          "internalType": "address",
          "name": "to",
          "type": "address"
        },
        {
          "internalType": "uint256",
          "name": "amount",
          "type": "uint256"
        }
      ],
      "name": "transfer",
      "outputs": [
        {
          "internalType": "bool",
          "name": "",
          "type": "bool"
        }
      ],
      "stateMutability": "nonpayable",
      "type": "function"
    },
    {
      "inputs": [
        {
          "internalType": "address",
          "name": "from",
          "type": "address"
        },
        {
          "internalType": "address",
          "name": "to",
          "type": "address"
        },
        {
          "internalType": "uint256",
          "name": "amount",
          "type": "uint256"
        }
      ],
      "name": "transferFrom",
      "outputs": [
        {
          "internalType": "bool",
          "name": "",
          "type": "bool"
        }
      ],
      "stateMutability": "nonpayable",
      "type": "function"
    }
  ],
  "transactionHash": "0xbdc9ffcafac29b6eb7ead2f478599dce900b76d6b35f79a2b76e43af052f8a56",
  "args": [
    "0x71e3c9E482fdCaF73D129F96663d1cd5721AFaD3"
  ],
  "numDeployments": 1,
  "solcInputHash": "b41618dec32ce7bd276dd135aaea4438",
  "bytecode": "0x6080346200041757601f19906001600160401b0390601f62000d683881900382810186168401858111858210176200031b578492829160405283396020938491810103126200041757516001600160a01b03811694908590036200041757620000676200041c565b93600b85526a1554d115081e55985d5b1d60aa1b84860152620000896200041c565b9460068652651e5d9554d11560d21b858701528051908282116200031b5760039182546001928382811c921680156200040c575b89831014620003f6578188849311620003a0575b5088908883116001146200033d5760009262000331575b505060001982851b1c191690821b1782555b86519283116200031b5760049687548281811c9116801562000310575b88821014620002fb57868111620002b0575b5086908685116001146200024757849550908492916000956200023b575b50501b92600019911b1c19161783555b620186a06005553315620001fa5750600254683635c9adc5dea0000092838201809211620001e557506000917fddf252ad1be2c89b69c2b068fc378daa952ba7f163c4a11628f55a4df523b3ef91600255338352828152604083208481540190556040519384523393a3600680546001600160a01b03191691909117905560405161092b90816200043d8239f35b601190634e487b7160e01b6000525260246000fd5b606492916040519262461bcd60e51b845283015260248201527f45524332303a206d696e7420746f20746865207a65726f2061646472657373006044820152fd5b01519350388062000147565b9291948416928860005284886000209460005b8a898383106200029857505050106200027d575b50505050811b01835562000157565b01519060f884600019921b161c19169055388080806200026e565b8686015189559097019694850194889350016200025a565b88600052876000208780870160051c8201928a8810620002f1575b0160051c019083905b828110620002e457505062000129565b60008155018390620002d4565b92508192620002cb565b602289634e487b7160e01b6000525260246000fd5b90607f169062000117565b634e487b7160e01b600052604160045260246000fd5b015190503880620000e8565b908785941691866000528a6000209260005b8c82821062000389575050841162000370575b505050811b018255620000fa565b015160001983871b60f8161c1916905538808062000362565b83850151865588979095019493840193016200034f565b90915084600052886000208880850160051c8201928b8610620003ec575b918691869594930160051c01915b828110620003dc575050620000d1565b60008155859450869101620003cc565b92508192620003be565b634e487b7160e01b600052602260045260246000fd5b91607f1691620000bd565b600080fd5b60408051919082016001600160401b038111838210176200031b5760405256fe608060408181526004918236101561001657600080fd5b600092833560e01c91826306fdde031461052f57508163095ea7b314610505578163118c9a07146104eb57816318160ddd146104cc57816323b872dd14610402578163313ce567146103e6578163395093511461037f57816370a082311461034857816395d89b411461022957816399530b061461020a578163a457c2d71461016257508063a9059cbb14610132578063dd62ed3e146100ea5763fc0c546a146100bf57600080fd5b346100e657816003193601126100e65760065490516001600160a01b039091168152602090f35b5080fd5b50346100e657806003193601126100e65780602092610107610654565b61010f61066f565b6001600160a01b0391821683526001865283832091168252845220549051908152f35b50346100e657806003193601126100e65760209061015b610151610654565b6024359033610685565b5160018152f35b9050823461020757826003193601126102075761017d610654565b918360243592338152600160205281812060018060a01b03861682526020522054908282106101b65760208561015b85850387336107f3565b608490602086519162461bcd60e51b8352820152602560248201527f45524332303a2064656372656173656420616c6c6f77616e63652062656c6f77604482015264207a65726f60d81b6064820152fd5b80fd5b5050346100e657816003193601126100e6576020906005549051908152f35b8383346100e657816003193601126100e657805190828454600181811c9080831692831561033e575b602093848410811461032b5783885290811561030f57506001146102ba575b505050829003601f01601f191682019267ffffffffffffffff8411838510176102a757508291826102a392528261060b565b0390f35b634e487b7160e01b815260418552602490fd5b8787529192508591837f8a35acfbc15ff81a39ae7d344fd709f28e8600b4aa8c65c6b64bfe7fe36bd19b5b8385106102fb5750505050830101858080610271565b8054888601830152930192849082016102e5565b60ff1916878501525050151560051b8401019050858080610271565b634e487b7160e01b895260228a52602489fd5b91607f1691610252565b5050346100e65760203660031901126100e65760209181906001600160a01b03610370610654565b16815280845220549051908152f35b828434610207578160031936011261020757610399610654565b338252600160209081528383206001600160a01b03831684529052828220546024358101929083106103d35760208461015b8585336107f3565b634e487b7160e01b815260118552602490fd5b5050346100e657816003193601126100e6576020905160128152f35b839150346100e65760603660031901126100e65761041e610654565b61042661066f565b91846044359460018060a01b038416815260016020528181203382526020522054906000198203610460575b60208661015b878787610685565b848210610489575091839161047e6020969561015b950333836107f3565b919394819350610452565b606490602087519162461bcd60e51b8352820152601d60248201527f45524332303a20696e73756666696369656e7420616c6c6f77616e63650000006044820152fd5b5050346100e657816003193601126100e6576020906002549051908152f35b8390346100e65760203660031901126100e6573560055580f35b5050346100e657806003193601126100e65760209061015b610525610654565b60243590336107f3565b8490843461060757826003193601126106075782600354600181811c908083169283156105fd575b602093848410811461032b5783885290811561030f57506001146105a757505050829003601f01601f191682019267ffffffffffffffff8411838510176102a757508291826102a392528261060b565b600387529192508591837fc2575a0e9e593c00f959f8c92f12db2869c3395a3b0502d05e2516446f71f85b5b8385106105e95750505050830101858080610271565b8054888601830152930192849082016105d3565b91607f1691610557565b8280fd5b6020808252825181830181905290939260005b82811061064057505060409293506000838284010152601f8019910116010190565b81810186015184820160400152850161061e565b600435906001600160a01b038216820361066a57565b600080fd5b602435906001600160a01b038216820361066a57565b6001600160a01b039081169182156107a0571691821561074f576000828152806020526040812054918083106106fb57604082827fddf252ad1be2c89b69c2b068fc378daa952ba7f163c4a11628f55a4df523b3ef958760209652828652038282205586815220818154019055604051908152a3565b60405162461bcd60e51b815260206004820152602660248201527f45524332303a207472616e7366657220616d6f756e7420657863656564732062604482015265616c616e636560d01b6064820152608490fd5b60405162461bcd60e51b815260206004820152602360248201527f45524332303a207472616e7366657220746f20746865207a65726f206164647260448201526265737360e81b6064820152608490fd5b60405162461bcd60e51b815260206004820152602560248201527f45524332303a207472616e736665722066726f6d20746865207a65726f206164604482015264647265737360d81b6064820152608490fd5b6001600160a01b039081169182156108a457169182156108545760207f8c5be1e5ebec7d5bd14f71427d1e84f3dd0314c0f7b2291e5b200ac8c7c3b925918360005260018252604060002085600052825280604060002055604051908152a3565b60405162461bcd60e51b815260206004820152602260248201527f45524332303a20617070726f766520746f20746865207a65726f206164647265604482015261737360f01b6064820152608490fd5b60405162461bcd60e51b8152602060048201526024808201527f45524332303a20617070726f76652066726f6d20746865207a65726f206164646044820152637265737360e01b6064820152608490fdfea264697066735822122071c943cbf0f99ddeef47107345ad9f82dfe8c39093ca9b5bccab976e3ec565cf64736f6c63430008110033",
  "devdoc": {
    "kind": "dev",
    "methods": {
      "allowance(address,address)": {
        "details": "See {IERC20-allowance}."
      },
      "approve(address,uint256)": {
        "details": "See {IERC20-approve}. NOTE: If `amount` is the maximum `uint256`, the allowance is not updated on `transferFrom`. This is semantically equivalent to an infinite approval. Requirements: - `spender` cannot be the zero address."
      },
      "balanceOf(address)": {
        "details": "See {IERC20-balanceOf}."
      },
      "decimals()": {
        "details": "Returns the number of decimals used to get its user representation. For example, if `decimals` equals `2`, a balance of `505` tokens should be displayed to a user as `5.05` (`505 / 10 ** 2`). Tokens usually opt for a value of 18, imitating the relationship between Ether and Wei. This is the default value returned by this function, unless it's overridden. NOTE: This information is only used for _display_ purposes: it in no way affects any of the arithmetic of the contract, including {IERC20-balanceOf} and {IERC20-transfer}."
      },
      "decreaseAllowance(address,uint256)": {
        "details": "Atomically decreases the allowance granted to `spender` by the caller. This is an alternative to {approve} that can be used as a mitigation for problems described in {IERC20-approve}. Emits an {Approval} event indicating the updated allowance. Requirements: - `spender` cannot be the zero address. - `spender` must have allowance for the caller of at least `subtractedValue`."
      },
      "increaseAllowance(address,uint256)": {
        "details": "Atomically increases the allowance granted to `spender` by the caller. This is an alternative to {approve} that can be used as a mitigation for problems described in {IERC20-approve}. Emits an {Approval} event indicating the updated allowance. Requirements: - `spender` cannot be the zero address."
      },
      "name()": {
        "details": "Returns the name of the token."
      },
      "symbol()": {
        "details": "Returns the symbol of the token, usually a shorter version of the name."
      },
      "totalSupply()": {
        "details": "See {IERC20-totalSupply}."
      },
      "transfer(address,uint256)": {
        "details": "See {IERC20-transfer}. Requirements: - `to` cannot be the zero address. - the caller must have a balance of at least `amount`."
      },
      "transferFrom(address,address,uint256)": {
        "details": "See {IERC20-transferFrom}. Emits an {Approval} event indicating the updated allowance. This is not required by the EIP. See the note at the beginning of {ERC20}. NOTE: Does not update the allowance if the current allowance is the maximum `uint256`. Requirements: - `from` and `to` cannot be the zero address. - `from` must have a balance of at least `amount`. - the caller must have allowance for ``from``'s tokens of at least `amount`."
      }
    },
    "version": 1
  },
  "userdoc": {
    "kind": "user",
    "methods": {},
    "version": 1
  },
  "storageLayout": {
    "storage": [
      {
        "astId": 2255,
        "contract": "contracts/Vyper_contract.sol:Vyper_contract",
        "label": "_balances",
        "offset": 0,
        "slot": "0",
        "type": "t_mapping(t_address,t_uint256)"
      },
      {
        "astId": 2261,
        "contract": "contracts/Vyper_contract.sol:Vyper_contract",
        "label": "_allowances",
        "offset": 0,
        "slot": "1",
        "type": "t_mapping(t_address,t_mapping(t_address,t_uint256))"
      },
      {
        "astId": 2263,
        "contract": "contracts/Vyper_contract.sol:Vyper_contract",
        "label": "_totalSupply",
        "offset": 0,
        "slot": "2",
        "type": "t_uint256"
      },
      {
        "astId": 2265,
        "contract": "contracts/Vyper_contract.sol:Vyper_contract",
        "label": "_name",
        "offset": 0,
        "slot": "3",
        "type": "t_string_storage"
      },
      {
        "astId": 2267,
        "contract": "contracts/Vyper_contract.sol:Vyper_contract",
        "label": "_symbol",
        "offset": 0,
        "slot": "4",
        "type": "t_string_storage"
      },
      {
        "astId": 6494,
        "contract": "contracts/Vyper_contract.sol:Vyper_contract",
        "label": "pricePerShare",
        "offset": 0,
        "slot": "5",
        "type": "t_uint256"
      },
      {
        "astId": 6496,
        "contract": "contracts/Vyper_contract.sol:Vyper_contract",
        "label": "token",
        "offset": 0,
        "slot": "6",
        "type": "t_address"
      }
    ],
    "types": {
      "t_address": {
        "encoding": "inplace",
        "label": "address",
        "numberOfBytes": "20"
      },
      "t_mapping(t_address,t_mapping(t_address,t_uint256))": {
        "encoding": "mapping",
        "key": "t_address",
        "label": "mapping(address => mapping(address => uint256))",
        "numberOfBytes": "32",
        "value": "t_mapping(t_address,t_uint256)"
      },
      "t_mapping(t_address,t_uint256)": {
        "encoding": "mapping",
        "key": "t_address",
        "label": "mapping(address => uint256)",
        "numberOfBytes": "32",
        "value": "t_uint256"
      },
      "t_string_storage": {
        "encoding": "bytes",
        "label": "string",
        "numberOfBytes": "32"
      },
      "t_uint256": {
        "encoding": "inplace",
        "label": "uint256",
        "numberOfBytes": "32"
      }
    }
  }
}