{
  "address": "0x6D310172fB5D2C64A5080c8e15E4AB5536f1E5D3",
  "abi": [
    {
      "inputs": [
        {
          "internalType": "address",
          "name": "_owner",
          "type": "address"
        },
        {
          "internalType": "address",
          "name": "_vrfCoordinatorV2",
          "type": "address"
        }
      ],
      "stateMutability": "nonpayable",
      "type": "constructor"
    },
    {
      "anonymous": false,
      "inputs": [
        {
          "indexed": false,
          "internalType": "address",
          "name": "tournament",
          "type": "address"
        }
      ],
      "name": "TournamentCreated",
      "type": "event"
    },
    {
      "inputs": [
        {
          "internalType": "uint256",
          "name": "",
          "type": "uint256"
        }
      ],
      "name": "TournamentArray",
      "outputs": [
        {
          "internalType": "address",
          "name": "",
          "type": "address"
        }
      ],
      "stateMutability": "view",
      "type": "function"
    },
    {
      "inputs": [
        {
          "internalType": "address",
          "name": "",
          "type": "address"
        }
      ],
      "name": "TournamentMap",
      "outputs": [
        {
          "internalType": "contract Tournament",
          "name": "",
          "type": "address"
        }
      ],
      "stateMutability": "view",
      "type": "function"
    },
    {
      "inputs": [
        {
          "internalType": "address",
          "name": "",
          "type": "address"
        }
      ],
      "name": "TournamentPartner",
      "outputs": [
        {
          "internalType": "address",
          "name": "",
          "type": "address"
        }
      ],
      "stateMutability": "view",
      "type": "function"
    },
    {
      "inputs": [],
      "name": "callbackGasLimit",
      "outputs": [
        {
          "internalType": "uint32",
          "name": "",
          "type": "uint32"
        }
      ],
      "stateMutability": "view",
      "type": "function"
    },
    {
      "inputs": [
        {
          "internalType": "string",
          "name": "_name",
          "type": "string"
        },
        {
          "internalType": "address",
          "name": "_poolIncentivized",
          "type": "address"
        },
        {
          "internalType": "uint256",
          "name": "_LPTokenAmount",
          "type": "uint256"
        },
        {
          "internalType": "uint32",
          "name": "_startTime",
          "type": "uint32"
        },
        {
          "internalType": "uint32",
          "name": "_endTime",
          "type": "uint32"
        }
      ],
      "name": "createTournament",
      "outputs": [
        {
          "internalType": "address",
          "name": "instance",
          "type": "address"
        }
      ],
      "stateMutability": "nonpayable",
      "type": "function"
    },
    {
      "inputs": [],
      "name": "gasLane",
      "outputs": [
        {
          "internalType": "bytes32",
          "name": "",
          "type": "bytes32"
        }
      ],
      "stateMutability": "view",
      "type": "function"
    },
    {
      "inputs": [],
      "name": "getAllActiveTournaments",
      "outputs": [
        {
          "internalType": "address[]",
          "name": "activeTournaments",
          "type": "address[]"
        }
      ],
      "stateMutability": "view",
      "type": "function"
    },
    {
      "inputs": [],
      "name": "getAllFutureTournaments",
      "outputs": [
        {
          "internalType": "address[]",
          "name": "futureTournaments",
          "type": "address[]"
        }
      ],
      "stateMutability": "view",
      "type": "function"
    },
    {
      "inputs": [],
      "name": "getAllPastTournaments",
      "outputs": [
        {
          "internalType": "address[]",
          "name": "pastTournaments",
          "type": "address[]"
        }
      ],
      "stateMutability": "view",
      "type": "function"
    },
    {
      "inputs": [],
      "name": "getAllTournaments",
      "outputs": [
        {
          "internalType": "address[]",
          "name": "list",
          "type": "address[]"
        }
      ],
      "stateMutability": "view",
      "type": "function"
    },
    {
      "inputs": [
        {
          "internalType": "address",
          "name": "_partner",
          "type": "address"
        }
      ],
      "name": "getTournamentsByPartner",
      "outputs": [
        {
          "internalType": "address[]",
          "name": "",
          "type": "address[]"
        }
      ],
      "stateMutability": "view",
      "type": "function"
    },
    {
      "inputs": [
        {
          "internalType": "address",
          "name": "_player",
          "type": "address"
        }
      ],
      "name": "getTournamentsByPlayer",
      "outputs": [
        {
          "internalType": "address[]",
          "name": "playersTournaments",
          "type": "address[]"
        }
      ],
      "stateMutability": "view",
      "type": "function"
    },
    {
      "inputs": [],
      "name": "getVrfConfig",
      "outputs": [
        {
          "internalType": "uint64",
          "name": "",
          "type": "uint64"
        },
        {
          "internalType": "bytes32",
          "name": "",
          "type": "bytes32"
        },
        {
          "internalType": "uint32",
          "name": "",
          "type": "uint32"
        }
      ],
      "stateMutability": "view",
      "type": "function"
    },
    {
      "inputs": [],
      "name": "implementationContract",
      "outputs": [
        {
          "internalType": "address",
          "name": "",
          "type": "address"
        }
      ],
      "stateMutability": "view",
      "type": "function"
    },
    {
      "inputs": [
        {
          "internalType": "address",
          "name": "_contract",
          "type": "address"
        }
      ],
      "name": "isTournament",
      "outputs": [
        {
          "internalType": "bool",
          "name": "",
          "type": "bool"
        }
      ],
      "stateMutability": "view",
      "type": "function"
    },
    {
      "inputs": [],
      "name": "owner",
      "outputs": [
        {
          "internalType": "address",
          "name": "",
          "type": "address"
        }
      ],
      "stateMutability": "view",
      "type": "function"
    },
    {
      "inputs": [
        {
          "internalType": "bytes32",
          "name": "_gasLane",
          "type": "bytes32"
        },
        {
          "internalType": "uint32",
          "name": "_callbackGasLimit",
          "type": "uint32"
        }
      ],
      "name": "setChainlinkConfig",
      "outputs": [],
      "stateMutability": "nonpayable",
      "type": "function"
    },
    {
      "inputs": [],
      "name": "subscriptionId",
      "outputs": [
        {
          "internalType": "uint64",
          "name": "",
          "type": "uint64"
        }
      ],
      "stateMutability": "view",
      "type": "function"
    }
  ],
  "transactionHash": "0x2d5b835b7f37df972e1029ae8e32a7fdc63896a59e947b2ea761c259fd86a1ad",
  "args": [
    "0xCd3C672770495EC50013E40AEd66DBD755BbC584",
    "0x7a1BaC17Ccc5b313516C5E16fb24f7659aA5ebed"
  ],
  "numDeployments": 1,
  "solcInputHash": "40a317edfab1218159ceea2b9c2108ef",
  "bytecode": "0x608060409080825234620001a557818162004d498038038091620000248285620001aa565b833981010312620001a5576200004860206200004083620001ce565b9201620001ce565b6007805463ffffffff1916620f4240179055600380546001600160a01b03199081166001600160a01b03948516179091558351613b98808201946001600160401b039490929091858711828810176200018f57620011b1823980600096039086f0801562000185579185939181602094168360045416176004551680916005541617600555600486518096819363288688f960e21b83525af1928315620001795781936200012c575b505060058054600160a01b600160e01b03191660a09390931b600160a01b600160e01b0316929092179091555051610fcd9081620001e48239f35b909192506020813d821162000170575b816200014b60209383620001aa565b810103126200016c57519182168203620001695750388080620000f1565b80fd5b5080fd5b3d91506200013c565b508351903d90823e3d90fd5b86513d87823e3d90fd5b634e487b7160e01b600052604160045260246000fd5b600080fd5b601f909101601f19168101906001600160401b038211908210176200018f57604052565b51906001600160a01b0382168203620001a55756fe608060408181526004908136101561001657600080fd5b600092833560e01c90816309c1ba2e14610da1575080631945c11b14610a5b57806324f7469714610a3657806327389485146109fb57806341c05374146109bb578063446d98f914610952578063482bcdaa146107ad5780637fce976d1461072957806380f07841146105b95780638920bb67146104495780638da5cb5b1461042057806399e7d056146103f8578063ddb6facc146103d9578063e10f1b06146103aa578063e4aadc1814610367578063e6506e1714610328578063ecccc6da1461029b5763eef25660146100ea57600080fd5b34610297578260031936011261029757825483805b8281106101f6575061011090610f0f565b928490855b83811061012d578451806101298882610e76565b0390f35b61013681610e2c565b60018060a01b03809254600392831b1c1689526020600181528481848a8d2054168a519283809263527eb7ab60e11b82525afa9182156101ec578b926101bf575b505061018e575b505061018990610eba565b610115565b936101b79183956101a161018995610e2c565b9054911b1c166101b1828a610f41565b52610eba565b92903861017e565b6101de9250803d106101e5575b6101d68183610df4565b810190610edf565b3880610177565b503d6101cc565b89513d8d823e3d90fd5b6101ff81610e2c565b90546001600160a01b0360039290921b1c811687526001602090815285882054865163527eb7ab60e11b81529192839183918a918391165afa91821561028d578892610270575b505061025b575b61025690610eba565b6100ff565b9061026861025691610eba565b91905061024d565b6102869250803d106101e5576101d68183610df4565b3880610246565b86513d8a823e3d90fd5b8280fd5b5082346103255780600319360112610325578151815480825282805260208083019492937f290decd9548b62a8d60345a988386fc84ba6bc95484008f6362f93160ef3e56392915b8282106103055761012986866102fb828b0383610df4565b5191829182610e76565b83546001600160a01b0316875295860195600193840193909101906102e3565b80fd5b838234610363576020366003190112610363576020916001600160a01b0390829082610352610e16565b168152600285522054169051908152f35b5080fd5b83823461036357816003193601126103635760609067ffffffffffffffff60055460a01c16906006549063ffffffff600754169181519384526020840152820152f35b838234610363576020366003190112610363576020906103d06103cb610e16565b610f6b565b90519015158152f35b8382346103635781600319360112610363576020906006549051908152f35b5090346102975782600319360112610297575490516001600160a01b03909116815260209150f35b83823461036357816003193601126103635760035490516001600160a01b039091168152602090f35b5034610297578260031936011261029757825483805b828110610522575061047090610f0f565b928490855b838110610489578451806101298882610e76565b61049281610e2c565b60018060a01b03809254600392831b1c1689526020600181528481848a8d2054168a519283809263a0aae3dd60e01b82525afa9182156101ec578b92610505575b50506104ea575b50506104e590610eba565b610475565b936104fd9183956101a16104e595610e2c565b9290386104da565b61051b9250803d106101e5576101d68183610df4565b38806104d3565b61052b81610e2c565b90546001600160a01b0360039290921b1c811687526001602090815285882054865163a0aae3dd60e01b81529192839183918a918391165afa91821561028d57889261059c575b5050610587575b61058290610eba565b61045f565b9061059461058291610eba565b919050610579565b6105b29250803d106101e5576101d68183610df4565b3880610572565b5034610297578260031936011261029757825483805b82811061069257506105e090610f0f565b928490855b8381106105f9578451806101298882610e76565b61060281610e2c565b60018060a01b03809254600392831b1c1689526020600181528481848a8d2054168a51928380926308bcf8b560e21b82525afa9182156101ec578b92610675575b505061065a575b505061065590610eba565b6105e5565b9361066d9183956101a161065595610e2c565b92903861064a565b61068b9250803d106101e5576101d68183610df4565b3880610643565b61069b81610e2c565b90546001600160a01b0360039290921b1c81168752600160209081528588205486516308bcf8b560e21b81529192839183918a918391165afa91821561028d57889261070c575b50506106f7575b6106f290610eba565b6105cf565b906107046106f291610eba565b9190506106e9565b6107229250803d106101e5576101d68183610df4565b38806106e2565b5090346102975781600319360112610297576024359163ffffffff83168093036107a8576003546001600160a01b0316330361077557503560065563ffffffff19600754161760075580f35b906020606492519162461bcd60e51b8352820152600d60248201526c2737ba103a34329027bbb732b960991b6044820152fd5b600080fd5b50346102975760209283600319360112610325576107c9610e16565b81546001600160a01b039182169590919083805b8481106108bc57506107ee90610f0f565b958491855b858110610807578751806101298b82610e76565b8461081182610e2c565b919054600392831b1c16885260018352858989205416838c60248c5180948193629c95e160e41b83528a8301525afa9081156108b257908792918a91610895575b50610868575b505061086390610eba565b6107f3565b9461088b91839661087b61086395610e2c565b9054911b1c166101b1828d610f41565b9390508438610858565b6108ac9150853d87116101e5576101d68183610df4565b38610852565b8a513d8b823e3d90fd5b836108c682610e2c565b90549060031b1c16865260018352838787205416838a60248b8b519485938492629c95e160e41b84528301525afa90811561094857879161092b575b50610916575b61091190610eba565b6107dd565b9061092361091191610eba565b919050610908565b6109429150843d86116101e5576101d68183610df4565b38610902565b88513d89823e3d90fd5b50823461032557602090816003193601126103255750610970610e16565b5081519181839283019181845260605180935283019160809160005b82811061099b57505050500390f35b83516001600160a01b03168552869550938101939281019260010161098c565b509034610297576020366003190112610297573591805483101561032557506109e5602092610e2c565b905491519160018060a01b039160031b1c168152f35b838234610363576020366003190112610363576020916001600160a01b0390829082610a25610e16565b168152600185522054169051908152f35b83823461036357816003193601126103635760209063ffffffff600754169051908152f35b50346102975760a03660031901126102975781359267ffffffffffffffff928385116103635736602386011215610363578481013593808511610d8e57835194602096601f1991610ab38984601f8401160189610df4565b80885260249136838383010111610d8a57818792848c9301838c0137890101526001600160a01b0391813583811690819003610d8a576064359163ffffffff998a8416809403610d86576084359a8b16809b03610d86578754608881901c62ffffff16763d602d80600a3d3981f3363d3d373d3d3d363d73000000178a5260781b6effffffffffffffffffffffffffffff19166e5af43d82803e903d91602b57fd5bf3178c5285603760098bf0169a8b15610d4a578660035416948760055416928d3b15610d4657928a94928f928d97958f51998a986348972d1560e11b8a528901526101008b890152805194856101048a0152895b868110610d1a575050509186949391601f93610124978a89868a01015260448801526044356064880152608487015260a48601523060c486015260e485015201168101030181838c5af18015610d1057610cfd575b50845468010000000000000000811015610ceb57610c228160018a93018855610e2c565b819291549060031b85811b9283911b1691191617905586855260018852858520876bffffffffffffffffffffffff60a01b82541617905560055491821690813b15610ce7579185604492898296958a519889978896631cd0704360e21b885260a01c16908601528401525af18015610cdd57610cc9575b50507f66b8e5c50b708b71a6f155375a4613dd12971db692c5931e7cb0701ee7add6ac838251848152a151908152f35b610cd38291610dca565b6103255780610c99565b83513d84823e3d90fd5b8580fd5b50634e487b7160e01b85526041845284fd5b610d0990959195610dca565b9338610bfe565b87513d88823e3d90fd5b90829496989a50809395979950818193010151610124828d010152019189979593918f99979593610ba9565b8b80fd5b50895162461bcd60e51b81528089018d905260168187015275115490cc4c4d8dce8818dc99585d194819985a5b195960521b6044820152606490fd5b8880fd5b8680fd5b634e487b7160e01b835260418252602483fd5b84903461036357816003193601126103635760209067ffffffffffffffff60055460a01c168152f35b67ffffffffffffffff8111610dde57604052565b634e487b7160e01b600052604160045260246000fd5b90601f8019910116810190811067ffffffffffffffff821117610dde57604052565b600435906001600160a01b03821682036107a857565b906000918254811015610e62578280527f290decd9548b62a8d60345a988386fc84ba6bc95484008f6362f93160ef3e563019190565b634e487b7160e01b83526032600452602483fd5b6020908160408183019282815285518094520193019160005b828110610e9d575050505090565b83516001600160a01b031685529381019392810192600101610e8f565b6000198114610ec95760010190565b634e487b7160e01b600052601160045260246000fd5b908160209103126107a8575180151581036107a85790565b67ffffffffffffffff8111610dde5760051b60200190565b90610f1982610ef7565b610f266040519182610df4565b8281528092610f37601f1991610ef7565b0190602036910137565b8051821015610f555760209160051b010190565b634e487b7160e01b600052603260045260246000fd5b6001600160a01b0390811660008181526001602052604090205490911614610f9257600090565b60019056fea26469706673582212204b46f677989b7ad5025d4abef45f4648d06969bb7cb91152d80adf60ed37df9e64736f6c634300081100336080806040523461003d57600880546001600160901b0319166f016345785d8a00000de0b6b3a76400001790556001600955613b5590816100438239f35b600080fdfe608080604052600436101561001357600080fd5b60e0600035811c91826306fdde03146123e75750816309c95e10146123a95781631fe543e31461206a578163218e97f81461202c57816322f3e2d414611fd157816326695d9614611e21578163275db00714611deb5781632ac061781461190b5781633197cbb6146118e55781633582d789146118b05781633d68175c14611895578163419759f514611877578163444f682b14611843578163476343ee146116a0578163548c0ef414611668578163554a7087146116455781635c12cd4b146115f0578163660e64f7146113345781636e3fed4714611319578163724c9b231461086757816378e97925146112f55781637c8d1a951461127f5781638796ba8c1461122e5781638b5b9ccc146111aa5781638c0d6cdc146111875781638ce744261461115a5781638da5cb5b146111315781639081a66a14611116578163912e5a2a14610a5d578163979215de146109f95781639af1d35a146109cf578163a0aae3dd14610998578163a2f77bcc14610871578163a4fd6f5614610867578163a5db0c4b1461060b578163a73adbc6146105e6578163abe081b1146105cb578163bce54e14146105a5578163bd62c00414610589578163be265f7e1461052d578163c0747a89146104fd578163db40906e146104d0578163db5e2d02146104a1578163e76c293e1461030157508063e9dbacc8146102cd578063f71d96cb14610272578063fc2a88c3146102545763fd6673f514610232575b600080fd5b3461022d57600036600319011261022d57602061ffff600a5416604051908152f35b3461022d57600036600319011261022d576020601254604051908152f35b3461022d57602036600319011261022d57600435600a5481101561022d57600a6000527fc65a7bb8d6351c1cf70c95a316cc6a92839c986682d98bc35f958f4883f9d2a801546040516001600160a01b039091168152602090f35b3461022d57602036600319011261022d576102fd6102f16102ec612675565b6135de565b60405191829182612616565b0390f35b3461022d57600036600319011261022d57604051600254816000610324836124a0565b8083529260019081811690811561047f5750600114610432575b5061034b925003826124f5565b6003546001600160a01b039081169261036261386a565b9060055460ff81831c1693600285101561041c5761037e613753565b9190936004549161038d613675565b9381600a5461ffff169761039f6134df565b99604051809e819e6101a080845283016103b891612539565b91306020820152604001528d80820390606001526103d591612539565b9a60808d01521660a08b01521660c089015287015260ff1661010086015263ffffffff9081811661012087015260201c166101408501526101608401526101808301520390f35b634e487b7160e01b600052602160045260246000fd5b600260009081529150600080516020613ac08339815191525b848310610464575061034b93505081016020018561033e565b8193509081602092548385890101520191019091849261044b565b90506020925061034b94915060ff191682840152151560051b8201018561033e565b3461022d57600036600319011261022d5760206104c86006546104c26133f8565b906127be565b604051908152f35b3461022d57602036600319011261022d5760206104f36104ee61255e565b613575565b6040519015158152f35b3461022d57600036600319011261022d576102fd61051961386a565b604051918291602083526020830190612539565b3461022d57604036600319011261022d57610546612675565b61ffff6024359116600052600b6020526040600020805482101561022d57602091610570916125fe565b905460405160039290921b1c6001600160a01b03168152f35b3461022d57600036600319011261022d576102fd6105196136e9565b3461022d57600036600319011261022d5760206105c0613675565b60ff60405191168152f35b3461022d57600036600319011261022d5760206104f36135ab565b3461022d57600036600319011261022d57602061ffff60085460801c16604051908152f35b3461022d57600036600319011261022d57336000908152600c6020526040902060010154156108225761ffff620151809063ffffffff9060055492818184602096871c1604169242160416106107e65761066433613215565b906008546001600160401b036106db6106d2856106c66106be61068b868860401c1661275f565b6106b9670de0b6b3a76400006106b0600454938a6106a9898761277e565b911661278b565b049a8b9261277e565b61277e565b6007546127be565b6007556104c2336134b1565b946006546127be565b600655806106e83361337e565b16818316038181116107d0571667ffffffffffffffff199190911617600855336000818152600c83526040808220600101829055600354905163a9059cbb60e01b81526004810193909352602483018590529192918291849160449183916001600160a01b03165af19182156107c4577f0f5bb82176feb1b5e747e28471aa92156a04d9f3ab9f45f28e2d704232b93f759261078c91600091610797575b506127cb565b6040519283523392a2005b6107b79150833d85116107bd575b6107af81836124f5565b8101906126fe565b85610786565b503d6107a5565b6040513d6000823e3d90fd5b634e487b7160e01b600052601160045260246000fd5b6064906040519062461bcd60e51b825260048201526015602482015274155b9cdd185ada5b99c81b9bdd08185b1b1bddd959605a1b6044820152fd5b60405162461bcd60e51b815260206004820152601c60248201527f596f752068617665206e6f7468696e6720746f207769746864726177000000006044820152606490fd5b505061022d612574565b3461022d576020908160031936011261022d57600435806000526010835260ff60406000205416926040600020549260ff60406000205460a81c169060ff60406000205460b01c169260019687604060002001956040519081848954918281520190819960005285600020908c60005b8281106109855750505050826108f89103836124f5565b6000526010835260ff600260406000200154169360018060a01b039660026040600020015496886040519b848d01968d5260081c16868c0152151560408b0152151560608a01526080890152518091526101008701959160005b828110610972575050505084955060a085015260081c1660c08301520390f35b8351885296810196928101928901610952565b83548552938801939281019281016108e1565b3461022d57600036600319011261022d57602061ffff6201518063ffffffff91808284600554160416916040519342160416108152f35b3461022d57600036600319011261022d5760206001600160401b0360085460401c16604051908152f35b3461022d57602036600319011261022d576001600160a01b03610a1a61255e565b16600052600c602052608060406000206001815491015463ffffffff6040519261ffff8116845260ff8160101c16602085015260181c1660408301526060820152f35b3461022d5761010036600319011261022d57610a7761255e565b602435906001600160401b03821161022d573660238301121561022d578160040135610aa28161265a565b92610ab060405194856124f5565b818452366024838301011161022d578160009260246020930183870137840101526044356001600160a01b038116810361022d5763ffffffff608435166084350361022d5763ffffffff60a4351660a4350361022d5760c4356001600160a01b038116900361022d5760e4356001600160a01b038116900361022d576000549160ff8360081c161592838094611109575b80156110f2575b156110965760ff19811660011760005583611084575b5063ffffffff60a4351663ffffffff6084351610156110345760843563ffffffff166110275763ffffffff8042165b168063ffffffff1960055416176005554211610fd0574263ffffffff60a435161115610f8b5760643515610f375760018060a01b03166001600160601b0360a01b600154161760015582516001600160401b038111610f2157610bf16002546124a0565b601f8111610ed9575b506020601f8211600114610e655781929394600092610e5a575b50508160011b916000199060031b1c1916176002555b6064356004556001600160a01b038116610d70575b5060058054640100000000600160e01b03191660a43560201b67ffffffff00000000161760c43560401b68010000000000000000600160e01b0316179055600054600881901c60ff1615610d175762010000600160b01b0319811660e435601081901b62010000600160b01b0316918217600055601380546001600160a01b0319166001600160a01b0390921691909117905591610cd957005b610100600160b01b03191617600055604051600181527f7f26b83ff96e1f2b6a682f133852f6798a09c465da95921460cefb384740249890602090a1005b60405162461bcd60e51b815260206004820152602b60248201527f496e697469616c697a61626c653a20636f6e7472616374206973206e6f74206960448201526a6e697469616c697a696e6760a81b6064820152608490fd5b600380546001600160a01b0319166001600160a01b0390921691821790556040516395d89b4160e01b815290600090829060049082905afa80156107c4577f0c49a525f6758cfb27d0ada1467d2a2e99733995423d47ae30ae4ba2ba56325591600091610e37575b50604051610e0360208281610df68183019687815193849201612516565b81010380845201826124f5565b51902003610e1f576005805460ff60e01b191690555b81610c3f565b6005805460ff60e01b1916600160e01b179055610e19565b610e5491503d806000833e610e4c81836124f5565b81019061269d565b83610dd8565b015190508480610c14565b6002600052600080516020613ac08339815191529060005b601f1984168110610ec15750600193949583601f19811610610ea8575b505050811b01600255610c2a565b015160001960f88460031b161c19169055848080610e9a565b9091602060018192858a015181550193019101610e7d565b610f11906002600052600080516020613ac0833981519152601f840160051c81019160208510610f17575b601f0160051c0190612686565b84610bfa565b9091508190610f04565b634e487b7160e01b600052604160045260246000fd5b60405162461bcd60e51b815260206004820152602660248201527f416d6f756e7420746f207374616b65206d75737420626520677265617465722060448201526507468616e20360d41b6064820152608490fd5b60405162461bcd60e51b815260206004820152601e60248201527f456e642074696d65206d75737420626520696e207468652066757475726500006044820152606490fd5b60405162461bcd60e51b815260206004820152602960248201527f53746172742074696d65206d75737420626520746f646179206f7220696e207460448201526868652066757475726560b81b6064820152608490fd5b63ffffffff608435610b8d565b60405162461bcd60e51b815260206004820152602260248201527f53746172742074696d65206d757374206265206265666f726520656e642074696044820152616d6560f01b6064820152608490fd5b61ffff19166101011760005584610b5e565b60405162461bcd60e51b815260206004820152602e60248201527f496e697469616c697a61626c653a20636f6e747261637420697320616c72656160448201526d191e481a5b9a5d1a585b1a5e995960921b6064820152608490fd5b50303b158015610b485750600160ff821614610b48565b50600160ff821610610b41565b3461022d57600036600319011261022d5760206104c86133f8565b3461022d57600036600319011261022d576001546040516001600160a01b039091168152602090f35b3461022d57600036600319011261022d5760ff90600554901c16604051600282101561041c576020918152f35b3461022d57602036600319011261022d5760206104c86111a561255e565b6134b1565b3461022d57600036600319011261022d5760405180600a5491828152602080910192600a6000527fc65a7bb8d6351c1cf70c95a316cc6a92839c986682d98bc35f958f4883f9d2a8916000905b82821061120e576102fd856102f1818903826124f5565b83546001600160a01b0316865294850194600193840193909101906111f7565b3461022d57602036600319011261022d5760043560115481101561022d5760209060116000527f31ecc21a745e3968a04e9570e4425bc18fa8019c68028196b546d1669c200c680154604051908152f35b3461022d57602036600319011261022d57600435600052601060205260c0604060002060028154910154906040519160ff8216835260ff60018060a01b0392838160081c166020860152818160a81c161515604086015260b01c161515606084015260ff8116608084015260081c1660a0820152f35b3461022d57600036600319011261022d57602063ffffffff60055416604051908152f35b3461022d57600036600319011261022d5760206104c86134df565b3461022d5760208060031936011261022d5760043560055461ffff90620151809061138363ffffffff9182421694808587041694848282828616041687101593846115de575b5050505061298c565b61139561138f33613575565b156129d8565b336000908152600c60205260409020600101546113b3901515612a24565b600d546001600160a01b0394908581161561157d57506113e79033600052600c87528260406000205460181c169033612a70565b93600d541693600e549161140460ff938492600f54169088612a70565b169082811682036114c157505050916114939261142033612e73565b61142982612e73565b6040519081527f2899dbc9fe19019184ec4a79aec9aab083d48c07007a18ad4f67ded7c194e431853392a35b600d80546001600160a01b03191690555b33600052600c835260406000209066ffffffff00000082549160181b169066ffffffff0000001916179055565b7f5f5b6a73baac5999ee15391a0b8afa5b24f786c7faf2ed2beff1aef5a5673ffe60405191600083523392a2005b916114cd819693612ae7565b1603938085116107d05760018160038893611493981606161460001461153557600080516020613ae0833981519152919261150733612b62565b61151084612e48565b604051818152600080516020613b00833981519152833392a2604051908152a2611455565b5061153f81612b62565b61154833612e48565b600080516020613b0083398151915285604051848152a2604051908152600080516020613ae0833981519152843392a2611455565b90919250611493945033600052600c86526115a38360406000205460181c168333612a70565b5033906001600160601b0360a01b1617600d55600e5533600052600c845260406000205460181c1663ffffffff19600f541617600f55611466565b8a1c160416841090508780848161137a565b3461022d57602036600319011261022d5761160961255e565b6116128161327b565b506001600160a01b03919091166000908152600c602090815260409182902054825161ffff948516815293169083015290f35b3461022d57602036600319011261022d5760206104c861166361255e565b613215565b3461022d57602036600319011261022d5761168961168461255e565b61327b565b6040805161ffff9384168152919092166020820152f35b3461022d57600036600319011261022d576001546001600160a01b03908116330361180e5760075480156117d3576008546001600160401b03166117c4575080602060249260035416604051938480926370a0823160e01b82523060048301525afa9182156107c45760009261178f575b50611754602091600093905b600785905560035460405163a9059cbb60e01b81523360048201526024810193909352919485939190921691839182906044820190565b03925af180156107c45761176f9160009161177157506127cb565b005b611789915060203d81116107bd576107af81836124f5565b82610786565b91506020823d82116117bc575b816117a9602093836124f5565b8101031261022d57905190611754611711565b3d915061179c565b6117546000926020929061171d565b60405162461bcd60e51b81526020600482015260136024820152724e6f206665657320746f20776974686472617760681b6044820152606490fd5b60405162461bcd60e51b815260206004820152600d60248201526c2737ba103a34329027bbb732b960991b6044820152606490fd5b3461022d57602036600319011261022d57602061186661186161255e565b61337e565b6001600160401b0360405191168152f35b3461022d57600036600319011261022d576020600454604051908152f35b3461022d57600036600319011261022d5760206104c8613085565b3461022d57600036600319011261022d576118c9613753565b604080516001600160a01b039384168152919092166020820152f35b3461022d57600036600319011261022d57602060055463ffffffff60405191831c168152f35b3461022d576020908160031936011261022d576004359060ff821680920361022d5760028211611db757600491600554916119cd61ffff611976620151809563ffffffff968742169380828604169189828282871604168410159485611da5575b505050505061298c565b61198261138f33613575565b336000908152600c60205260409020600101546119a0901515612a24565b33600052600c875260406000209066ffffffff00000082549160181b169066ffffffff0000001916179055565b60055460408051631c955b8360e31b8152956001600160a01b039260609288929183911c85165afa9182156107c45786600095600097600095611d48575b5060a484601354169860006040519a8b9485936305d3b1d360e41b855260048501526001600160401b03998a60249d168d86015260036044860152166064840152600160848401525af19586156107c457600096611d19575b506040519387850185811085821117611d04576040526000855260405191820182811085821117611d045760405281528681013381526040820191600083526060810194600186526080820196875260a08201956003875260c0830194600086528a60005260108c52611b0d8760ff60406000209651169660ff19978888541617875551168590815490610100600160a81b039060081b1690610100600160a81b031916179055565b518354915161ffff60a81b1990921690151560a81b60ff60a81b161790151560b01b60ff60b01b1617825595518051909660018301908211611cef57600160401b97888311611cda578b908254848455808510611cbd575b5001906000528a60002060005b838110611cab575050955160029290920180549451610100600160a81b03961660081b9590951660ff90921692909316610100600160a81b031916919091171790915550611bbd9050565b60115490811015611c96576001810180601155811015611c8157829060116000527f31ecc21a745e3968a04e9570e4425bc18fa8019c68028196b546d1669c200c680155816012558115611c3f57506040518181527f5f5b6a73baac5999ee15391a0b8afa5b24f786c7faf2ed2beff1aef5a5673ffe833392a2604051908152f35b606490836040519162461bcd60e51b83528160048401528201527f596f7572206d6f766520636f756c64206e6f742062652070726f6365737365646044820152fd5b50634e487b7160e01b60009081526032600452fd5b50634e487b7160e01b60009081526041600452fd5b825182820155918c0191600101611b72565b611cd4908460005285846000209182019101612686565b8d611b65565b89634e487b7160e01b60005260416004526000fd5b88634e487b7160e01b60005260416004526000fd5b86634e487b7160e01b60005260416004526000fd5b9095508681813d8311611d41575b611d3181836124f5565b8101031261022d57519487611a64565b503d611d27565b965093505094506060843d8211611d9d575b81611d67606093836124f5565b8101031261022d578351946001600160401b038616860361022d5786611d936040828801519701612ad6565b9695969389611a0b565b3d9150611d5a565b8d1c160416119050898080898161196c565b60405162461bcd60e51b815260206004820152600c60248201526b496e76616c6964206d6f766560a01b6044820152606490fd5b3461022d57602036600319011261022d576060611e0e611e0961255e565b612817565b9060405192835260208301526040820152f35b3461022d57600036600319011261022d57336000908152600c6020526040902060010154611f8c57611e516135ab565b15611f51576000602060018060a01b0360035416606460045460405194859384926323b872dd60e01b845233600485015230602485015260448401525af19081156107c457600091611f33575b501561022d57611eac613085565b33600052600c602052600160406000200155600a54600160401b811015610f2157611ee0816001611f029301600a556125b1565b81546001600160a01b0360039290921b91821b80199091163390921b16179055565b6004546040519081527f9e71bc8eea02a63969f509818f2dafb9254532904319f9dbda79b67bd34a5f3d60203392a2005b611f4b915060203d81116107bd576107af81836124f5565b81611e9e565b60405162461bcd60e51b815260206004820152601360248201527214dd185ada5b99c81b9bdd08185b1b1bddd959606a1b6044820152606490fd5b60405162461bcd60e51b815260206004820152601760248201527f596f75206861766520616c7265616479207374616b65640000000000000000006044820152606490fd5b3461022d57600036600319011261022d57602060055461ffff620151809063ffffffff91818184421604169282828287160416841015948561201a575b86866040519015158152f35b861c160416119050828080808061200e565b3461022d57602036600319011261022d576001600160a01b0361204d61255e565b16600052600c602052602061ffff60406000205416604051908152f35b3461022d57604036600319011261022d5760043560248035916001600160401b0380841161022d573660238501121561022d57836004013592818411612395578360051b92604051956020956120c2878701896124f5565b87528587018381968301019136831161022d5784889101915b8383106123855750506000546001600160a01b0398925060101c881690503381900361235c5750816000526010865260ff938460406000205460b01c16156123245781511561230f57846003875106169260005260108752604060002091600160a81b60ff60a81b1984541617835560019687840191519283116122fa57600160401b83116122fa5781548383558084106122dd575b50908693929190600052886000208860005b8481106122c8575050505050600281018360ff1982541617905554968760081c1696168181146000146121fb575050505050907f2899dbc9fe19019184ec4a79aec9aab083d48c07007a18ad4f67ded7c194e4316000926121e383612e73565b60405161ffff6201518063ffffffff421604168152a3005b6122058491612ae7565b1603908282116122b45750600390821606160361226957600080516020613ae08339815191529082612238600094612b62565b61ffff6201518063ffffffff4216041690600080516020613b0083398151915283604051848152a2604051908152a2005b600080516020613ae08339815191529061228283612e48565b61ffff6201518063ffffffff421604166000600080516020613b0083398151915283604051848152a2604051908152a2005b634e487b7160e01b60009081526011600452fd5b835183820155899650928b01928a9101612183565b6122f49083600052848b6000209182019101612686565b8a612171565b85634e487b7160e01b60005260416004526000fd5b83634e487b7160e01b60005260326004526000fd5b60405162461bcd60e51b815260048101889052601181860152701c995c5d595cdd081b9bdd08199bdd5b99607a1b6044820152606490fd5b60405163073e64fd60e21b81523360048201526001600160a01b03919091166024820152604490fd5b82358152918101918891016120db565b634e487b7160e01b60009081526041600452fd5b3461022d57602036600319011261022d5760206104f36123c761255e565b6001600160a01b03166000908152600c6020526040902060010154151590565b3461022d57600036600319011261022d576000600254612406816124a0565b808452906001908181169081156124795750600114612430575b6102fd84610519818603826124f5565b600260009081529250600080516020613ac08339815191525b82841061246157505050810160200161051982612420565b80546020858701810191909152909301928101612449565b60ff191660208087019190915292151560051b850190920192506105199150839050612420565b90600182811c921680156124d0575b60208310146124ba57565b634e487b7160e01b600052602260045260246000fd5b91607f16916124af565b608081019081106001600160401b03821117610f2157604052565b90601f801991011681019081106001600160401b03821117610f2157604052565b60005b8381106125295750506000910152565b8181015183820152602001612519565b9060209161255281518092818552858086019101612516565b601f01601f1916010190565b600435906001600160a01b038216820361022d57565b503461022d57600036600319011261022d57602061ffff620151809063ffffffff906005549281818460405196881c160416924216041610158152f35b600a548110156125e857600a6000527fc65a7bb8d6351c1cf70c95a316cc6a92839c986682d98bc35f958f4883f9d2a80190600090565b634e487b7160e01b600052603260045260246000fd5b80548210156125e85760005260206000200190600090565b6020908160408183019282815285518094520193019160005b82811061263d575050505090565b83516001600160a01b03168552938101939281019260010161262f565b6001600160401b038111610f2157601f01601f191660200190565b6004359061ffff8216820361022d57565b818110612691575050565b60008155600101612686565b60208183031261022d578051906001600160401b03821161022d570181601f8201121561022d5780516126cf8161265a565b926126dd60405194856124f5565b8184526020828401011161022d576126fb9160208085019101612516565b90565b9081602091031261022d5751801515810361022d5790565b90815491600160401b831015610f21578261273991600161275d950181556125fe565b90919082549060031b9160018060a01b039283811b93849216901b16911916179055565b565b906001600160401b03809216670de0b6b3a7640000039182116107d057565b919082039182116107d057565b818102929181159184041417156107d057565b81156127a8570490565b634e487b7160e01b600052601260045260246000fd5b919082018092116107d057565b156127d257565b60405162461bcd60e51b815260206004820152601b60248201527f5472616e73666572206f66204c5020746f6b656e204661696c656400000000006044820152606490fd5b6005549061ffff916201518063ffffffff938082864216041691858282828716041684101594856128c6575b50505050501580156128b7575b8015612894575b612887576128809160018060a01b038216600052600c60205260406000205460181c16906128d9565b9192909190565b5050600090600090600090565b506001600160a01b0381166000908152600c602052604090206001015415612857565b506128c181613575565b612850565b60201c1604161190503880808581612843565b909160405191602083016001600160601b0319809260601b16918282523060601b16948560348601526000604886015263ffffffff60e01b9060e01b1693846068820152604c815261292a816124da565b51902093604051602081019083825282603482015260016048820152856068820152604c8152612959816124da565b5190209360405191602083019384526034830152600260488301526068820152604c8152612986816124da565b51902090565b1561299357565b60405162461bcd60e51b815260206004820152601860248201527f546f75726e616d656e74206973206e6f742061637469766500000000000000006044820152606490fd5b156129df57565b60405162461bcd60e51b815260206004820152601860248201527f596f7520616c726561647920706c6179656420746f64617900000000000000006044820152606490fd5b15612a2b57565b60405162461bcd60e51b815260206004820152601f60248201527f596f75206d757374206465706f736974206265666f726520706c6179696e67006044820152606490fd5b91612a7b91926128d9565b92918214612ace578114612ac75714612ac25760405162461bcd60e51b815260206004820152600c60248201526b496e76616c6964206d6f766560a01b6044820152606490fd5b600290565b5050600190565b505050600090565b519063ffffffff8216820361022d57565b60ff166003019060ff82116107d057565b60001981146107d05760010190565b8015612b245760ff81116107d0576001901b9060ff82116107d057565b50600190565b15612b3457600190565b600190565b90600161ffff809316019182116107d057565b91909161ffff808094169116019182116107d057565b906001600160a01b03808316918215612e42576000838152600c602093818552604091828420968754986001988960ff8c60101c16019a60ff8c11612d5357909192939495969799989a62ff00009060101b169062ff0000191617905581865282895261ffff93848688205416908888905b612d7b575b505080612cc0575b509181612c5c88999a94600b9694899a995283865260ff612c09818a8d205460101c16612b07565b16838b52848752888b209086612c23835492828416612b4c565b169061ffff1916179055600854838b5284875285898c205416868260801c1610612c9b575b5084888b2054168a52868652878a20612716565b87528252838620541685525282205414612c74575050565b600954918201809211612c875750600955565b634e487b7160e01b81526011600452602490fd5b888b205461ffff60801b1990911660809190911b61ffff60801b161760085538612c48565b989290949391898752600b8452848720998a54908115612d6757899a9b60009a98999a1980930190612d0a612cf583836125fe565b81549060018060a01b039060031b1b19169055565b558952600b85528589205415612d2a575b50919394969590929897612be1565b9092949691939550600954908101908111612d5357600955948794909390929091612c5c612d1b565b634e487b7160e01b88526011600452602488fd5b634e487b7160e01b89526031600452602489fd5b82899c9b9a9c52600b808c52888a2054821015612e38578286612da0848c8e206125fe565b929054600393841b1c1614612dd457505090612dc38c9998979695949392612af8565b909192939495969798999a9b612bd4565b848b52818d52898b2080549d9e9c9d93949293600019810191908211612e2457928f949192612e0a612e1d9794612739966125fe565b9054911b1c1693868d5252898b206125fe565b3880612bd9565b634e487b7160e01b8d52601160045260248dfd5b509a98999a612bd9565b92505050565b6001600160a01b03168015612e7057600052600c602052604060002062ff0000198154169055565b50565b6001600160a01b039080821690811561306c57600091808352602090600c825261ffff90604093828587205416865b818852600b8087528789205482101561305d578985612ec3848b8d206125fe565b929054600393841b1c1614612ee2575050612edd90612af8565b612ea2565b838a9b929495969798999a52838952898b208a8c2054906000198201918211612e245791612f196127399492612f2d9796946125fe565b9054911b1c1692858c528952898b206125fe565b80612ffb575b509181612fa8600b9460019796948952600c855260ff612f5a81898c205460101c16612b2a565b16878a209085612f6e835492828416612b4c565b169061ffff1916179055600854838a52600c865284888b205416858260801c1610612fd6575b5083878a2054168952858552868920612716565b8652600c8252838620541685525282205414612fc15750565b6009549060018201809211612c875750600955565b878a205461ffff60801b1990911660809190911b61ffff60801b161760085538612f94565b808752600b8552858720908154918215612d675760001992830190613023612cf583836125fe565b558752600b855285872054612f3357600954908101908111613049576009556001612f33565b634e487b7160e01b87526011600452602487fd5b50509091929394959650612f2d565b505050565b51906001600160701b038216820361022d57565b60ff60055460e01c16600281101561041c5760010361310857600354604051634ca9858360e11b815290602090829060049082906001600160a01b03165afa9081156107c4576000916130d7575b5090565b906020823d8211613100575b816130f0602093836124f5565b810103126130fd57505190565b80fd5b3d91506130e3565b600354604051630240bc6b60e21b81526001600160a01b0390911690606081600481855afa9081156107c45760009081926131bc575b50602060049293604051938480926318160ddd60e01b82525afa9182156107c457600092613187575b50613182906126fb936001600160701b03809116911661278b565b61279e565b90916020823d82116131b4575b816131a1602093836124f5565b810103126130fd57505190613182613167565b3d9150613194565b91506060823d821161320d575b816131d6606093836124f5565b810103126130fd57508060206131ed600493613071565b61320460406131fd848601613071565b9401612ad6565b5091925061313e565b3d91506131c9565b61321d613085565b60009160018060a01b03168252600c6020526001604083200154156130d357906126fb916001604083200154811060001461327157506131826001604083200154915b60016040600454922001549061278b565b6131829091613260565b6001600160a01b0381166000908152600c6020526040812060010154909283929115613377578361ffff938460085460801c165b6001600160a01b0385168752600c60209081526040808920548389169290891683106133495790600b8992848c5252808a2054613326575b5050156132ff578516801561304957600019016132af565b5061330f91935094919394612b39565b918480600a541691169003938411612c8757509190565b9461333b916133419395968b20541690612b4c565b93612b39565b9186386132e7565b50505050949050604091939260018060a01b03168152600c6020528282822054168152600b60205220541690565b9150508190565b6133879061327b565b61ffff918216911680156133f15760095482036133df57670de0b6b3a764000060ff60025b1602906001600160401b03928383169283036107d05760ff81116107d0576133db926001613182921b9061279e565b1690565b670de0b6b3a764000060ff60016133ac565b5050600090565b600080600a546004545b81831061343c57505050613438670de0b6b3a7640000916001600160401b036134318160085460401c1661275f565b169061278b565b0490565b909192613448846125b1565b60018060a01b03809254600392831b1c16600052600c602052600160406000200154156134a557916104c26134926134989361349e956134878a6125b1565b9054911b1c16613215565b8561277e565b93612af8565b9190613402565b50509261349e90612af8565b6134316134d46126fb926134c36133f8565b906001600160401b0393849161337e565b90600854169061279e565b60055463ffffffff8082169161ffff90620151809180838542160416918184870416831061356a5760201c841692830416111561355957826135256006546104c26133f8565b9103918083116107d05761353a92169061278b565b42600101806001116107d0576126fb926135539161277e565b9061279e565b5050506126fb6006546104c26133f8565b505050505050600090565b60018060a01b0316600052600c60205261ffff620151809063ffffffff9181818460406000205460181c16041692421604161490565b63ffffffff6201517f198160055460201c16018181116107d0578161ffff80926201518092839116041692421604161090565b61ffff16801561364c576000526020600b81526040600020906040518092839183825491828152019160005283600020936000905b828210613629575050506126fb925003826124f5565b85546001600160a01b031684526001958601958795509381019390910190613613565b50604051602081018181106001600160401b03821117610f215760405260008152600036813790565b60035460405163313ce56760e01b815290602090829060049082906001600160a01b03165afa9081156107c4576000916136ad575090565b6020813d82116136e1575b816136c5602093836124f5565b810103126136dd57519060ff821682036130fd575090565b5080fd5b3d91506136b8565b6003546040516395d89b4160e01b815290600090829060049082906001600160a01b03165afa9081156107c457600091613721575090565b6126fb913d8091833e610e4c81836124f5565b9081602091031261022d57516001600160a01b038116810361022d5790565b60ff60055460e01c16600281101561041c5761381057600354604051630dfe168160e01b81526001600160a01b0390911691906020908181600481875afa9081156107c45760049183916000916137f3575b50946040519283809263d21220a760e01b82525afa9182156107c4576000926137cd57505090565b6126fb9250803d106137ec575b6137e481836124f5565b810190613734565b503d6137da565b61380a9150823d84116137ec576137e481836124f5565b386137a5565b600354604051637e062a3560e11b815290602090829060049082906001600160a01b03165afa9081156107c45760009161384c575b5090600090565b613864915060203d81116137ec576137e481836124f5565b38613845565b60ff60055460e01c16600281101561041c57613ab75760035460408051630dfe168160e01b81526001600160a01b03926020929084168383600481845afa928315613a8857908491600094613a93575b50825163d21220a760e01b81529190829060049082905afa908115613a8857600091613a6b575b50815192600084600481896395d89b4160e01b95868352165afa938415613a6057600094613a3d575b50906004600092845197889384928352165afa938415613a3257926021926139fb95926126fb95600094613a0f575b5090816139eb84602960f81b945161398160288284810197670aa9c925aac6440560c31b895261397181518092888686019101612516565b81010360088101845201826124f5565b6139b4898551809361399b868301998a9251928391612516565b8101602d60f81b868201520360018101845201826124f5565b83519788916139cb84840197889251928391612516565b82016139df82518093868085019101612516565b010380885201866124f5565b5196879451809285870190612516565b8301918201520360018101845201826124f5565b613a2a90602960f81b9392953d8091833e610e4c81836124f5565b939091613939565b50513d6000823e3d90fd5b613a5760049160009493963d8091833e610e4c81836124f5565b9491925061390a565b83513d6000823e3d90fd5b613a829150843d86116137ec576137e481836124f5565b386138e1565b82513d6000823e3d90fd5b82919450613aaf906004933d84116137ec576137e481836124f5565b9390916138ba565b6126fb6136e956fe405787fa12a823e0f2b7631cc41b3ba8828b3321ca811111fa75cd3aa3bb5ace6fe134047f45f02cf3cb4f41585cfa07ee161cda0e28816e99eb460697c30e1e9c2270628a9b29d30ae96b6c4c14ed646ee134febdce38a5b77f2bde9cea2e20a2646970667358221220c358e0dfd1c427d15cdcddef89fa9b5af8d5faf078d36715f1624f138680bfb764736f6c63430008110033",
  "devdoc": {
    "kind": "dev",
    "methods": {
      "createTournament(string,address,uint256,uint32,uint32)": {
        "params": {
          "_LPTokenAmount": "(uint256) - amount of the ERC-20 LP token to stake in order to participate",
          "_endTime": "(uint256) - block timestamp at which the tournament ends",
          "_name": "(string) - name of the tournament",
          "_poolIncentivized": "(address) - address of the pool to incentivize and from which we will accept the LP token",
          "_startTime": "(uint256) - block timestamp at which the tournament starts"
        },
        "returns": {
          "instance": "(address) - address of the new tournament"
        }
      },
      "getAllActiveTournaments()": {
        "returns": {
          "activeTournaments": "(address[] memory) - list of all tournament"
        }
      },
      "getAllFutureTournaments()": {
        "returns": {
          "futureTournaments": "(address[] memory) - list of all tournament"
        }
      },
      "getAllPastTournaments()": {
        "returns": {
          "pastTournaments": "(address[] memory) - list of all tournament"
        }
      },
      "getAllTournaments()": {
        "returns": {
          "list": "(address[] memory) - list of all tournament"
        }
      },
      "getTournamentsByPlayer(address)": {
        "returns": {
          "playersTournaments": "(address[] memory) - list of all tournament"
        }
      },
      "getVrfConfig()": {
        "details": "For use by the proxies when requesting a word to VRF"
      },
      "isTournament(address)": {
        "params": {
          "_contract": "(address) - address of the contract"
        },
        "returns": {
          "_0": "(bool)"
        }
      },
      "setChainlinkConfig(bytes32,uint32)": {
        "details": "Gas lanes for each chain can be found here https://docs.chain.link/vrf/v2/subscription/supported-networks",
        "params": {
          "_callbackGasLimit": "(uint32) - callback gas limit",
          "_gasLane": "(bytes32) - gas lane"
        }
      }
    },
    "version": 1
  },
  "userdoc": {
    "kind": "user",
    "methods": {
      "createTournament(string,address,uint256,uint32,uint32)": {
        "notice": "Function that allows anyone to deploy a new tournament contract"
      },
      "getAllActiveTournaments()": {
        "notice": "Returns an array of all the active tournament contracts"
      },
      "getAllFutureTournaments()": {
        "notice": "Returns an array of all the future tournament contracts"
      },
      "getAllPastTournaments()": {
        "notice": "Returns an array of all the past tournament contracts"
      },
      "getAllTournaments()": {
        "notice": "Returns an array of all the tournament contracts"
      },
      "getTournamentsByPartner(address)": {
        "notice": "Function that returns an array of all the tournament a partner created"
      },
      "getTournamentsByPlayer(address)": {
        "notice": "Returns an array of all the tournament entered by a player"
      },
      "getVrfConfig()": {
        "notice": "Returns the chainlink config"
      },
      "isTournament(address)": {
        "notice": "Returns true if the contract is a deployed tournament, false otherwise"
      },
      "setChainlinkConfig(bytes32,uint32)": {
        "notice": "Allows the owner to change the chainlink config"
      }
    },
    "version": 1
  },
  "storageLayout": {
    "storage": [
      {
        "astId": 3723,
        "contract": "contracts/TournamentFactory.sol:TournamentFactory",
        "label": "TournamentArray",
        "offset": 0,
        "slot": "0",
        "type": "t_array(t_address)dyn_storage"
      },
      {
        "astId": 3728,
        "contract": "contracts/TournamentFactory.sol:TournamentFactory",
        "label": "TournamentMap",
        "offset": 0,
        "slot": "1",
        "type": "t_mapping(t_address,t_contract(Tournament)3713)"
      },
      {
        "astId": 3732,
        "contract": "contracts/TournamentFactory.sol:TournamentFactory",
        "label": "TournamentPartner",
        "offset": 0,
        "slot": "2",
        "type": "t_mapping(t_address,t_address)"
      },
      {
        "astId": 3734,
        "contract": "contracts/TournamentFactory.sol:TournamentFactory",
        "label": "owner",
        "offset": 0,
        "slot": "3",
        "type": "t_address"
      },
      {
        "astId": 3736,
        "contract": "contracts/TournamentFactory.sol:TournamentFactory",
        "label": "implementationContract",
        "offset": 0,
        "slot": "4",
        "type": "t_address"
      },
      {
        "astId": 3739,
        "contract": "contracts/TournamentFactory.sol:TournamentFactory",
        "label": "vrfCoordinator",
        "offset": 0,
        "slot": "5",
        "type": "t_contract(VRFCoordinatorV2Interface)95"
      },
      {
        "astId": 3741,
        "contract": "contracts/TournamentFactory.sol:TournamentFactory",
        "label": "subscriptionId",
        "offset": 20,
        "slot": "5",
        "type": "t_uint64"
      },
      {
        "astId": 3743,
        "contract": "contracts/TournamentFactory.sol:TournamentFactory",
        "label": "gasLane",
        "offset": 0,
        "slot": "6",
        "type": "t_bytes32"
      },
      {
        "astId": 3746,
        "contract": "contracts/TournamentFactory.sol:TournamentFactory",
        "label": "callbackGasLimit",
        "offset": 0,
        "slot": "7",
        "type": "t_uint32"
      }
    ],
    "types": {
      "t_address": {
        "encoding": "inplace",
        "label": "address",
        "numberOfBytes": "20"
      },
      "t_array(t_address)dyn_storage": {
        "base": "t_address",
        "encoding": "dynamic_array",
        "label": "address[]",
        "numberOfBytes": "32"
      },
      "t_bytes32": {
        "encoding": "inplace",
        "label": "bytes32",
        "numberOfBytes": "32"
      },
      "t_contract(Tournament)3713": {
        "encoding": "inplace",
        "label": "contract Tournament",
        "numberOfBytes": "20"
      },
      "t_contract(VRFCoordinatorV2Interface)95": {
        "encoding": "inplace",
        "label": "contract VRFCoordinatorV2Interface",
        "numberOfBytes": "20"
      },
      "t_mapping(t_address,t_address)": {
        "encoding": "mapping",
        "key": "t_address",
        "label": "mapping(address => address)",
        "numberOfBytes": "32",
        "value": "t_address"
      },
      "t_mapping(t_address,t_contract(Tournament)3713)": {
        "encoding": "mapping",
        "key": "t_address",
        "label": "mapping(address => contract Tournament)",
        "numberOfBytes": "32",
        "value": "t_contract(Tournament)3713"
      },
      "t_uint32": {
        "encoding": "inplace",
        "label": "uint32",
        "numberOfBytes": "4"
      },
      "t_uint64": {
        "encoding": "inplace",
        "label": "uint64",
        "numberOfBytes": "8"
      }
    }
  }
}