{"abi":[{"type":"constructor","inputs":[{"name":"subscriptionId","type":"uint64","internalType":"uint64"},{"name":"gasLane","type":"bytes32","internalType":"bytes32"},{"name":"callbackGasLimit","type":"uint32","internalType":"uint32"},{"name":"vrfCoordinatorV2","type":"address","internalType":"address"}],"stateMutability":"nonpayable"},{"type":"function","name":"contractGameRequestId","inputs":[{"name":"","type":"uint256","internalType":"uint256"}],"outputs":[{"name":"playerMove","type":"uint8","internalType":"uint8"},{"name":"player","type":"address","internalType":"address"},{"name":"fulfilled","type":"bool","internalType":"bool"},{"name":"exists","type":"bool","internalType":"bool"},{"name":"vrfMove","type":"uint256","internalType":"uint256"},{"name":"winner","type":"address","internalType":"address"}],"stateMutability":"view"},{"type":"function","name":"deposits","inputs":[{"name":"","type":"address","internalType":"address"}],"outputs":[{"name":"","type":"uint256","internalType":"uint256"}],"stateMutability":"view"},{"type":"function","name":"lastRequestId","inputs":[],"outputs":[{"name":"","type":"uint256","internalType":"uint256"}],"stateMutability":"view"},{"type":"function","name":"livesLeft","inputs":[{"name":"","type":"address","internalType":"address"}],"outputs":[{"name":"","type":"uint256","internalType":"uint256"}],"stateMutability":"view"},{"type":"function","name":"playAganistContract","inputs":[{"name":"playerMove","type":"uint8","internalType":"uint8"}],"outputs":[],"stateMutability":"nonpayable"},{"type":"function","name":"playersPoints","inputs":[{"name":"","type":"address","internalType":"address"}],"outputs":[{"name":"","type":"uint256","internalType":"uint256"}],"stateMutability":"view"},{"type":"function","name":"rawFulfillRandomWords","inputs":[{"name":"requestId","type":"uint256","internalType":"uint256"},{"name":"randomWords","type":"uint256[]","internalType":"uint256[]"}],"outputs":[],"stateMutability":"nonpayable"},{"type":"function","name":"requestIds","inputs":[{"name":"","type":"uint256","internalType":"uint256"}],"outputs":[{"name":"","type":"uint256","internalType":"uint256"}],"stateMutability":"view"},{"type":"function","name":"resolveGame","inputs":[{"name":"requestId","type":"uint256","internalType":"uint256"}],"outputs":[{"name":"winner","type":"address","internalType":"address"}],"stateMutability":"nonpayable"},{"type":"event","name":"ContractPlayed","inputs":[{"name":"move","type":"uint256","indexed":false,"internalType":"uint256"}],"anonymous":false},{"type":"event","name":"GameResolved","inputs":[{"name":"winner","type":"address","indexed":false,"internalType":"address"}],"anonymous":false},{"type":"event","name":"PlayerPlayedAganistContract","inputs":[{"name":"playerMove","type":"uint8","indexed":false,"internalType":"uint8"}],"anonymous":false},{"type":"event","name":"RequestFulfilled","inputs":[{"name":"requestId","type":"uint256","indexed":false,"internalType":"uint256"},{"name":"randomWords","type":"uint256[]","indexed":false,"internalType":"uint256[]"}],"anonymous":false},{"type":"event","name":"RequestSent","inputs":[{"name":"requestId","type":"uint256","indexed":false,"internalType":"uint256"}],"anonymous":false},{"type":"error","name":"InvalidMove","inputs":[]},{"type":"error","name":"NoLivesLeft","inputs":[]},{"type":"error","name":"OnlyCoordinatorCanFulfill","inputs":[{"name":"have","type":"address","internalType":"address"},{"name":"want","type":"address","internalType":"address"}]}],"bytecode":{"object":"0x61010060405266038d7ea4c6800060025534801561001c57600080fd5b50604051610ca4380380610ca483398101604081905261003b9161007c565b6001600160a01b0316608081905260a0526001600160401b039290921660c05260e0526009805463ffffffff191663ffffffff9092169190911790556100f2565b6000806000806080858703121561009257600080fd5b84516001600160401b03811681146100a957600080fd5b60208601516040870151919550935063ffffffff811681146100ca57600080fd5b60608601519092506001600160a01b03811681146100e757600080fd5b939692955090935050565b60805160a05160c05160e051610b6b610139600039600061065a015260006106890152600081816104ca01526106ce01526000818161021e01526102600152610b6b6000f3fe608060405234801561001057600080fd5b50600436106100935760003560e01c80637c8d1a95116100665780637c8d1a95146101135780638796ba8c146101ac578063b7a5a5b6146101bf578063fc2a88c3146101ea578063fc7e286d146101f357600080fd5b80631fe543e3146100985780635a3bec1a146100ad5780636bfd428c146100e05780637c22232a146100f3575b600080fd5b6100ab6100a636600461092f565b610213565b005b6100cd6100bb3660046109f9565b60036020526000908152604090205481565b6040519081526020015b60405180910390f35b6100ab6100ee366004610a29565b6102a0565b6100cd6101013660046109f9565b60046020526000908152604090205481565b61016c610121366004610a4c565b60066020526000908152604090208054600282015460039092015460ff808316936001600160a01b036101008504811694600160a81b8104841694600160b01b909104909316921686565b6040805160ff90971687526001600160a01b03958616602088015293151593860193909352901515606085015260808401521660a082015260c0016100d7565b6100cd6101ba366004610a4c565b61038f565b6101d26101cd366004610a4c565b6103b0565b6040516001600160a01b0390911681526020016100d7565b6100cd60085481565b6100cd6102013660046109f9565b60056020526000908152604090205481565b336001600160a01b037f000000000000000000000000000000000000000000000000000000000000000016146102925760405163073e64fd60e21b81523360048201526001600160a01b037f00000000000000000000000000000000000000000000000000000000000000001660248201526044015b60405180910390fd5b61029c8282610541565b5050565b60028160ff1611156102c5576040516321e08b4d60e21b815260040160405180910390fd5b3360009081526003602052604081205490036102f4576040516335e297f360e21b815260040160405180910390fd5b6002543360009081526005602052604090205411610325576040516335e297f360e21b815260040160405180910390fd5b336000908152600360205260408120805460019290610345908490610a7b565b9091555061035590508133610648565b5060405160ff821681527f4ba5854d8194612c6bf0c95f810e3a20285ea08892109146d89d59580a734c8b9060200160405180910390a150565b6007818154811061039f57600080fd5b600091825260209091200154905081565b6000818152600660205260408120600281015481546003906103d69060ff166001610a8e565b6103e09190610abd565b60ff160361044a57805461010090046001600160a01b03166000908152600460205260408120805460029290610417908490610adf565b909155505080546003820180546101009092046001600160a01b03166001600160a01b03199092169190911790556104f6565b6002810154815460ff160361049357805461010090046001600160a01b03166000908152600460205260408120805460019290610488908490610adf565b909155506104f69050565b3360009081526003602052604081208054600192906104b3908490610a7b565b90915550506003810180546001600160a01b0319167f00000000000000000000000000000000000000000000000000000000000000006001600160a01b03161790555b60038101546040516001600160a01b0390911680825292507f2a2cb2e94a6626cc0ba41c90bd87ad701bdf47a8c3d7300070c92c0fd36b872b9060200160405180910390a150919050565b600082815260066020526040902054600160b01b900460ff1661059a5760405162461bcd60e51b81526020600482015260116024820152701c995c5d595cdd081b9bdd08199bdd5b99607a1b6044820152606401610289565b60006003826000815181106105b1576105b1610af2565b60200260200101516105c39190610b08565b6000848152600660209081526040909120805460ff60a81b1916600160a81b1781558451929350916105fd916001840191908601906108b9565b506002810182905561060e846103b0565b506040518281527f3451627bd48fbfc7d257efb43450602a05644d7603c18bf265af468cad5804dc9060200160405180910390a150505050565b6009546040516305d3b1d360e41b81527f0000000000000000000000000000000000000000000000000000000000000000600482015267ffffffffffffffff7f00000000000000000000000000000000000000000000000000000000000000001660248201526003604482015263ffffffff9091166064820152600160848201526000907f00000000000000000000000000000000000000000000000000000000000000006001600160a01b031690635d3b1d309060a4016020604051808303816000875af115801561071f573d6000803e3d6000fd5b505050506040513d601f19601f820116820180604052508101906107439190610b1c565b6040805160e08101825260ff86811682526001600160a01b038681166020808501918252600085870181815260016060880181815289518481528086018b5260808a01908152600360a08b015260c08a018590528b85526006865299909320885181549651935194511515600160b01b0260ff60b01b19951515600160a81b029590951661ffff60a81b1994909816610100026001600160a81b0319909716981697909717949094171693909317929092178355935180519596509294919361081293908501929101906108b9565b5060a0820151600282015560c090910151600390910180546001600160a01b0319166001600160a01b03909216919091179055600780546001810182556000919091527fa66cc928b5edb82af9bd49922954155ab7b0942694bea4ce44661d9a8736c6880181905560088190556040518181527f0cd21a41891ff04ecd9a8754bec97e2fb85d2a4e7694329d4dc364c796f23d069060200160405180910390a15b92915050565b8280548282559060005260206000209081019282156108f4579160200282015b828111156108f45782518255916020019190600101906108d9565b50610900929150610904565b5090565b5b808211156109005760008155600101610905565b634e487b7160e01b600052604160045260246000fd5b6000806040838503121561094257600080fd5b8235915060208084013567ffffffffffffffff8082111561096257600080fd5b818601915086601f83011261097657600080fd5b81358181111561098857610988610919565b8060051b604051601f19603f830116810181811085821117156109ad576109ad610919565b6040529182528482019250838101850191898311156109cb57600080fd5b938501935b828510156109e9578435845293850193928501926109d0565b8096505050505050509250929050565b600060208284031215610a0b57600080fd5b81356001600160a01b0381168114610a2257600080fd5b9392505050565b600060208284031215610a3b57600080fd5b813560ff81168114610a2257600080fd5b600060208284031215610a5e57600080fd5b5035919050565b634e487b7160e01b600052601160045260246000fd5b818103818111156108b3576108b3610a65565b60ff81811683821601908111156108b3576108b3610a65565b634e487b7160e01b600052601260045260246000fd5b600060ff831680610ad057610ad0610aa7565b8060ff84160691505092915050565b808201808211156108b3576108b3610a65565b634e487b7160e01b600052603260045260246000fd5b600082610b1757610b17610aa7565b500690565b600060208284031215610b2e57600080fd5b505191905056fea2646970667358221220aaf6123e9849f8ce81ddf8391cc13fbecede801596f12c94a70c64fb10033a8064736f6c63430008110033","linkReferences":{}},"methodIdentifiers":{"contractGameRequestId(uint256)":"7c8d1a95","deposits(address)":"fc7e286d","lastRequestId()":"fc2a88c3","livesLeft(address)":"5a3bec1a","playAganistContract(uint8)":"6bfd428c","playersPoints(address)":"7c22232a","rawFulfillRandomWords(uint256,uint256[])":"1fe543e3","requestIds(uint256)":"8796ba8c","resolveGame(uint256)":"b7a5a5b6"},"id":4}