{"abi":[{"type":"constructor","inputs":[{"name":"subscriptionId","type":"uint64","internalType":"uint64"},{"name":"gasLane","type":"bytes32","internalType":"bytes32"},{"name":"callbackGasLimit","type":"uint32","internalType":"uint32"},{"name":"vrfCoordinatorV2","type":"address","internalType":"address"}],"stateMutability":"nonpayable"},{"type":"function","name":"contractGameRequestId","inputs":[{"name":"","type":"uint256","internalType":"uint256"}],"outputs":[{"name":"playerMove","type":"uint8","internalType":"uint8"},{"name":"player","type":"address","internalType":"address"},{"name":"fulfilled","type":"bool","internalType":"bool"},{"name":"exists","type":"bool","internalType":"bool"},{"name":"vrfMove","type":"uint256","internalType":"uint256"},{"name":"winner","type":"address","internalType":"address"}],"stateMutability":"view"},{"type":"function","name":"deposit","inputs":[{"name":"amount","type":"uint256","internalType":"uint256"}],"outputs":[],"stateMutability":"nonpayable"},{"type":"function","name":"deposits","inputs":[{"name":"","type":"address","internalType":"address"}],"outputs":[{"name":"","type":"uint256","internalType":"uint256"}],"stateMutability":"view"},{"type":"function","name":"getContractGame","inputs":[{"name":"requestId","type":"uint256","internalType":"uint256"}],"outputs":[{"name":"","type":"tuple","internalType":"struct SingleGame.ContractGame","components":[{"name":"playerMove","type":"uint8","internalType":"uint8"},{"name":"player","type":"address","internalType":"address"},{"name":"fulfilled","type":"bool","internalType":"bool"},{"name":"exists","type":"bool","internalType":"bool"},{"name":"randomWords","type":"uint256[]","internalType":"uint256[]"},{"name":"vrfMove","type":"uint256","internalType":"uint256"},{"name":"winner","type":"address","internalType":"address"}]}],"stateMutability":"view"},{"type":"function","name":"getDeposits","inputs":[{"name":"player","type":"address","internalType":"address"}],"outputs":[{"name":"","type":"uint256","internalType":"uint256"}],"stateMutability":"view"},{"type":"function","name":"getLivesLeft","inputs":[{"name":"player","type":"address","internalType":"address"}],"outputs":[{"name":"","type":"uint256","internalType":"uint256"}],"stateMutability":"view"},{"type":"function","name":"getPoints","inputs":[{"name":"player","type":"address","internalType":"address"}],"outputs":[{"name":"","type":"uint256","internalType":"uint256"}],"stateMutability":"view"},{"type":"function","name":"lastRequestId","inputs":[],"outputs":[{"name":"","type":"uint256","internalType":"uint256"}],"stateMutability":"view"},{"type":"function","name":"livesLeft","inputs":[{"name":"","type":"address","internalType":"address"}],"outputs":[{"name":"","type":"uint256","internalType":"uint256"}],"stateMutability":"view"},{"type":"function","name":"owner","inputs":[],"outputs":[{"name":"","type":"address","internalType":"address"}],"stateMutability":"view"},{"type":"function","name":"play","inputs":[{"name":"move","type":"uint8","internalType":"uint8"}],"outputs":[],"stateMutability":"nonpayable"},{"type":"function","name":"playAganistContract","inputs":[{"name":"playerMove","type":"uint8","internalType":"uint8"}],"outputs":[],"stateMutability":"nonpayable"},{"type":"function","name":"playersPoints","inputs":[{"name":"","type":"address","internalType":"address"}],"outputs":[{"name":"","type":"uint256","internalType":"uint256"}],"stateMutability":"view"},{"type":"function","name":"rawFulfillRandomWords","inputs":[{"name":"requestId","type":"uint256","internalType":"uint256"},{"name":"randomWords","type":"uint256[]","internalType":"uint256[]"}],"outputs":[],"stateMutability":"nonpayable"},{"type":"function","name":"renounceOwnership","inputs":[],"outputs":[],"stateMutability":"nonpayable"},{"type":"function","name":"requestIds","inputs":[{"name":"","type":"uint256","internalType":"uint256"}],"outputs":[{"name":"","type":"uint256","internalType":"uint256"}],"stateMutability":"view"},{"type":"function","name":"resolveVrfGame","inputs":[{"name":"requestId","type":"uint256","internalType":"uint256"}],"outputs":[{"name":"winner","type":"address","internalType":"address"}],"stateMutability":"nonpayable"},{"type":"function","name":"startGameWithWager","inputs":[{"name":"wager","type":"uint256","internalType":"uint256"}],"outputs":[],"stateMutability":"nonpayable"},{"type":"function","name":"transferOwnership","inputs":[{"name":"newOwner","type":"address","internalType":"address"}],"outputs":[],"stateMutability":"nonpayable"},{"type":"function","name":"withdraw","inputs":[{"name":"amount","type":"uint256","internalType":"uint256"}],"outputs":[],"stateMutability":"nonpayable"},{"type":"event","name":"ContractPlayed","inputs":[{"name":"move","type":"uint256","indexed":false,"internalType":"uint256"}],"anonymous":false},{"type":"event","name":"GameResolved","inputs":[{"name":"winner","type":"address","indexed":false,"internalType":"address"}],"anonymous":false},{"type":"event","name":"MoveMade","inputs":[{"name":"move","type":"uint256","indexed":false,"internalType":"uint256"}],"anonymous":false},{"type":"event","name":"OwnershipTransferred","inputs":[{"name":"previousOwner","type":"address","indexed":true,"internalType":"address"},{"name":"newOwner","type":"address","indexed":true,"internalType":"address"}],"anonymous":false},{"type":"event","name":"PlayerPlayedAganistContract","inputs":[{"name":"playerMove","type":"uint8","indexed":false,"internalType":"uint8"}],"anonymous":false},{"type":"event","name":"RequestFulfilled","inputs":[{"name":"requestId","type":"uint256","indexed":false,"internalType":"uint256"},{"name":"randomWords","type":"uint256[]","indexed":false,"internalType":"uint256[]"}],"anonymous":false},{"type":"event","name":"RequestSent","inputs":[{"name":"requestId","type":"uint256","indexed":false,"internalType":"uint256"}],"anonymous":false},{"type":"error","name":"InvalidMove","inputs":[]},{"type":"error","name":"NoLivesLeft","inputs":[]},{"type":"error","name":"NotEnoughFunds","inputs":[]},{"type":"error","name":"OnlyCoordinatorCanFulfill","inputs":[{"name":"have","type":"address","internalType":"address"},{"name":"want","type":"address","internalType":"address"}]}],"bytecode":{"object":"0x61010060405266038d7ea4c6800060035534801561001c57600080fd5b5060405161160238038061160283398101604081905261003b916100dd565b6001600160a01b0381166080526100513361008d565b6001600160a01b031660a0526001600160401b039290921660c05260e052600b805463ffffffff191663ffffffff909216919091179055610153565b600080546001600160a01b038381166001600160a01b0319831681178455604051919092169283917f8be0079c531659141344cd1fd0a4f28419497f9722a3daafe3b4186f6b6457e09190a35050565b600080600080608085870312156100f357600080fd5b84516001600160401b038116811461010a57600080fd5b60208601516040870151919550935063ffffffff8116811461012b57600080fd5b60608601519092506001600160a01b038116811461014857600080fd5b939692955090935050565b60805160a05160c05160e05161146861019a6000396000610df001526000610e1f0152600081816108ea0152610e640152600081816103cc015261040e01526114686000f3fe608060405234801561001057600080fd5b506004361061012c5760003560e01c80637c8d1a95116100ad578063b6b55f2511610071578063b6b55f2514610349578063ee204abb1461035c578063f2fde38b14610385578063fc2a88c314610398578063fc7e286d146103a157600080fd5b80637c8d1a95146102385780637d0774fc146102d15780638796ba8c146102fc5780638da5cb5b1461030f57806394f649dd1461032057600080fd5b806354745dd5116100f457806354745dd5146101a65780635a3bec1a146101dd5780636bfd428c146101fd578063715018a6146102105780637c22232a1461021857600080fd5b80631fe543e314610131578063204e086b146101465780632e1a7d4d146101575780633c9ba8e01461016a57806353a04b0514610193575b600080fd5b61014461013f36600461116f565b6103c1565b005b610144610154366004611239565b50565b610144610165366004611239565b61044e565b61017d610178366004611239565b6104b5565b60405161018a919061128d565b60405180910390f35b6101446101a136600461130f565b6105bd565b6101cf6101b4366004611339565b6001600160a01b031660009081526005602052604090205490565b60405190815260200161018a565b6101cf6101eb366004611339565b60056020526000908152604090205481565b61014461020b36600461130f565b610715565b6101446107fe565b6101cf610226366004611339565b60066020526000908152604090205481565b610291610246366004611239565b60086020526000908152604090208054600282015460039092015460ff808316936001600160a01b036101008504811694600160a81b8104841694600160b01b909104909316921686565b6040805160ff90971687526001600160a01b03958616602088015293151593860193909352901515606085015260808401521660a082015260c00161018a565b6102e46102df366004611239565b610812565b6040516001600160a01b03909116815260200161018a565b6101cf61030a366004611239565b6109f7565b6000546001600160a01b03166102e4565b6101cf61032e366004611339565b6001600160a01b031660009081526007602052604090205490565b610144610357366004611239565b610a18565b6101cf61036a366004611339565b6001600160a01b031660009081526006602052604090205490565b610144610393366004611339565b610a87565b6101cf600a5481565b6101cf6103af366004611339565b60076020526000908152604090205481565b336001600160a01b037f000000000000000000000000000000000000000000000000000000000000000016146104405760405163073e64fd60e21b81523360048201526001600160a01b037f00000000000000000000000000000000000000000000000000000000000000001660248201526044015b60405180910390fd5b61044a8282610afd565b5050565b3360009081526007602052604090205481111561047e57604051631036b5ad60e31b815260040160405180910390fd5b336000908152600760205260408120805483929061049d908490611378565b90915550503360009081526005602052604081205550565b6040805160e0810182526000808252602082018190529181018290526060808201839052608082015260a0810182905260c0810191909152600082815260086020908152604091829020825160e081018452815460ff80821683526001600160a01b0361010083041683860152600160a81b82048116151583870152600160b01b9091041615156060820152600182018054855181860281018601909652808652919492936080860193929083018282801561059057602002820191906000526020600020905b81548152602001906001019080831161057c575b5050509183525050600282015460208201526003909101546001600160a01b031660409091015292915050565b60ff811615806105d0575060038160ff16115b156105ee576040516321e08b4d60e21b815260040160405180910390fd5b60045461010090046001600160a01b0316330361061e576040516321e08b4d60e21b815260040160405180910390fd5b33600090815260056020526040812054900361064d576040516335e297f360e21b815260040160405180910390fd5b600354336000908152600760205260409020541161067e576040516335e297f360e21b815260040160405180910390fd5b33600090815260056020526040812080546001929061069e908490611378565b909155505060045460ff16156106bd576106b781610c04565b506106db565b6004805433610100026001600160a81b031990911660ff8416171790555b60405160ff821681527ffb0ea1eb698a67de7ceab89141687391ed28f92113a960973b8a067cde5dfe31906020015b60405180910390a150565b60028160ff16111561073a576040516321e08b4d60e21b815260040160405180910390fd5b336000908152600560205260408120549003610769576040516335e297f360e21b815260040160405180910390fd5b600354336000908152600760205260409020541161079a576040516335e297f360e21b815260040160405180910390fd5b3360009081526005602052604081208054600192906107ba908490611378565b909155506107ca90508133610dde565b5060405160ff821681527f4ba5854d8194612c6bf0c95f810e3a20285ea08892109146d89d59580a734c8b9060200161070a565b61080661104f565b61081060006110a9565b565b60008181526008602052604081206002810154815460ff16036108ae57805461010090046001600160a01b0316600090815260066020526040812080546001929061085e90849061138b565b9091555050805461010090046001600160a01b0316600090815260056020526040812080546001929061089290849061138b565b90915550506003810180546001600160a01b03191690556109ac565b600281015481546003906108c69060ff16600161139e565b6108d091906113cd565b60ff160361091a576003810180546001600160a01b0319167f00000000000000000000000000000000000000000000000000000000000000006001600160a01b03161790556109ac565b805461010090046001600160a01b0316600090815260066020526040812080546002929061094990849061138b565b9091555050805461010090046001600160a01b0316600090815260056020526040812080546001929061097d90849061138b565b909155505080546003820180546101009092046001600160a01b03166001600160a01b03199092169190911790555b60038101546040516001600160a01b0390911680825292507f2a2cb2e94a6626cc0ba41c90bd87ad701bdf47a8c3d7300070c92c0fd36b872b9060200160405180910390a150919050565b60098181548110610a0757600080fd5b600091825260209091200154905081565b600354811015610a3b57604051631036b5ad60e31b815260040160405180910390fd5b3360009081526007602052604081208054839290610a5a90849061138b565b90915550503360009081526005602052604081208054600a9290610a7f90849061138b565b909155505050565b610a8f61104f565b6001600160a01b038116610af45760405162461bcd60e51b815260206004820152602660248201527f4f776e61626c653a206e6577206f776e657220697320746865207a65726f206160448201526564647265737360d01b6064820152608401610437565b610154816110a9565b600082815260086020526040902054600160b01b900460ff16610b565760405162461bcd60e51b81526020600482015260116024820152701c995c5d595cdd081b9bdd08199bdd5b99607a1b6044820152606401610437565b6000600382600081518110610b6d57610b6d6113ef565b6020026020010151610b7f9190611405565b6000848152600860209081526040909120805460ff60a81b1916600160a81b178155845192935091610bb9916001840191908601906110f9565b5060028101829055610bca84610812565b506040518281527f3451627bd48fbfc7d257efb43450602a05644d7603c18bf265af468cad5804dc9060200160405180910390a150505050565b60045460009060ff90811690831603610cd557336000908152600660205260408120805460029290610c3790849061138b565b909155505060045461010090046001600160a01b03166000908152600660205260408120805460029290610c6c90849061138b565b9091555050336000908152600560205260408120805460019290610c9190849061138b565b909155505060045461010090046001600160a01b03166000908152600560205260408120805460019290610cc690849061138b565b9091555060009150610dc99050565b60045460ff16610ce66003846113cd565b610cf190600161139e565b60ff1603610d7b576004805461010090046001600160a01b031660009081526006602052604081208054909190610d2990849061138b565b909155505060045461010090046001600160a01b03166000908152600560205260408120805460019290610d5e90849061138b565b909155505060045461010090046001600160a01b03169050610dc9565b336000908152600660205260408120805460049290610d9b90849061138b565b9091555050336000908152600560205260408120805460019290610dc090849061138b565b90915550339150505b600480546001600160a81b0319169055919050565b600b546040516305d3b1d360e41b81527f0000000000000000000000000000000000000000000000000000000000000000600482015267ffffffffffffffff7f00000000000000000000000000000000000000000000000000000000000000001660248201526003604482015263ffffffff9091166064820152600160848201526000907f00000000000000000000000000000000000000000000000000000000000000006001600160a01b031690635d3b1d309060a4016020604051808303816000875af1158015610eb5573d6000803e3d6000fd5b505050506040513d601f19601f82011682018060405250810190610ed99190611419565b6040805160e08101825260ff86811682526001600160a01b038681166020808501918252600085870181815260016060880181815289518481528086018b5260808a01908152600360a08b015260c08a018590528b85526008865299909320885181549651935194511515600160b01b0260ff60b01b19951515600160a81b029590951661ffff60a81b1994909816610100026001600160a81b03199097169816979097179490941716939093179290921783559351805195965092949193610fa893908501929101906110f9565b5060a0820151600282015560c090910151600390910180546001600160a01b0319166001600160a01b03909216919091179055600980546001810182556000919091527f6e1540171b6c0c960b71a7020d9f60077f6af931a8bbf590da0223dacf75c7af01819055600a8190556040518181527f0cd21a41891ff04ecd9a8754bec97e2fb85d2a4e7694329d4dc364c796f23d069060200160405180910390a15b92915050565b6000546001600160a01b031633146108105760405162461bcd60e51b815260206004820181905260248201527f4f776e61626c653a2063616c6c6572206973206e6f7420746865206f776e65726044820152606401610437565b600080546001600160a01b038381166001600160a01b0319831681178455604051919092169283917f8be0079c531659141344cd1fd0a4f28419497f9722a3daafe3b4186f6b6457e09190a35050565b828054828255906000526020600020908101928215611134579160200282015b82811115611134578251825591602001919060010190611119565b50611140929150611144565b5090565b5b808211156111405760008155600101611145565b634e487b7160e01b600052604160045260246000fd5b6000806040838503121561118257600080fd5b8235915060208084013567ffffffffffffffff808211156111a257600080fd5b818601915086601f8301126111b657600080fd5b8135818111156111c8576111c8611159565b8060051b604051601f19603f830116810181811085821117156111ed576111ed611159565b60405291825284820192508381018501918983111561120b57600080fd5b938501935b8285101561122957843584529385019392850192611210565b8096505050505050509250929050565b60006020828403121561124b57600080fd5b5035919050565b600081518084526020808501945080840160005b8381101561128257815187529582019590820190600101611266565b509495945050505050565b6020815260ff825116602082015260018060a01b0360208301511660408201526040820151151560608201526060820151151560808201526000608083015160e060a08401526112e1610100840182611252565b905060a084015160c084015260c084015161130760e08501826001600160a01b03169052565b509392505050565b60006020828403121561132157600080fd5b813560ff8116811461133257600080fd5b9392505050565b60006020828403121561134b57600080fd5b81356001600160a01b038116811461133257600080fd5b634e487b7160e01b600052601160045260246000fd5b8181038181111561104957611049611362565b8082018082111561104957611049611362565b60ff818116838216019081111561104957611049611362565b634e487b7160e01b600052601260045260246000fd5b600060ff8316806113e0576113e06113b7565b8060ff84160691505092915050565b634e487b7160e01b600052603260045260246000fd5b600082611414576114146113b7565b500690565b60006020828403121561142b57600080fd5b505191905056fea2646970667358221220e5b19d719fcc8318719f1e75d840b88f36318d3a6bd9dee5b3ee8b81f029d7b664736f6c63430008110033","linkReferences":{}},"methodIdentifiers":{"contractGameRequestId(uint256)":"7c8d1a95","deposit(uint256)":"b6b55f25","deposits(address)":"fc7e286d","getContractGame(uint256)":"3c9ba8e0","getDeposits(address)":"94f649dd","getLivesLeft(address)":"54745dd5","getPoints(address)":"ee204abb","lastRequestId()":"fc2a88c3","livesLeft(address)":"5a3bec1a","owner()":"8da5cb5b","play(uint8)":"53a04b05","playAganistContract(uint8)":"6bfd428c","playersPoints(address)":"7c22232a","rawFulfillRandomWords(uint256,uint256[])":"1fe543e3","renounceOwnership()":"715018a6","requestIds(uint256)":"8796ba8c","resolveVrfGame(uint256)":"7d0774fc","startGameWithWager(uint256)":"204e086b","transferOwnership(address)":"f2fde38b","withdraw(uint256)":"2e1a7d4d"},"id":4}