{"abi":[{"type":"constructor","inputs":[],"stateMutability":"nonpayable"},{"type":"function","name":"allowance","inputs":[{"name":"owner","type":"address","internalType":"address"},{"name":"spender","type":"address","internalType":"address"}],"outputs":[{"name":"","type":"uint256","internalType":"uint256"}],"stateMutability":"view"},{"type":"function","name":"approve","inputs":[{"name":"spender","type":"address","internalType":"address"},{"name":"amount","type":"uint256","internalType":"uint256"}],"outputs":[{"name":"","type":"bool","internalType":"bool"}],"stateMutability":"nonpayable"},{"type":"function","name":"balanceOf","inputs":[{"name":"account","type":"address","internalType":"address"}],"outputs":[{"name":"","type":"uint256","internalType":"uint256"}],"stateMutability":"view"},{"type":"function","name":"decimals","inputs":[],"outputs":[{"name":"","type":"uint8","internalType":"uint8"}],"stateMutability":"view"},{"type":"function","name":"decreaseAllowance","inputs":[{"name":"spender","type":"address","internalType":"address"},{"name":"subtractedValue","type":"uint256","internalType":"uint256"}],"outputs":[{"name":"","type":"bool","internalType":"bool"}],"stateMutability":"nonpayable"},{"type":"function","name":"getReserves","inputs":[],"outputs":[{"name":"","type":"uint256","internalType":"uint256"},{"name":"","type":"uint256","internalType":"uint256"},{"name":"","type":"uint256","internalType":"uint256"}],"stateMutability":"view"},{"type":"function","name":"increaseAllowance","inputs":[{"name":"spender","type":"address","internalType":"address"},{"name":"addedValue","type":"uint256","internalType":"uint256"}],"outputs":[{"name":"","type":"bool","internalType":"bool"}],"stateMutability":"nonpayable"},{"type":"function","name":"name","inputs":[],"outputs":[{"name":"","type":"string","internalType":"string"}],"stateMutability":"view"},{"type":"function","name":"setReserves","inputs":[{"name":"_reserve0","type":"uint256","internalType":"uint256"},{"name":"_reserve1","type":"uint256","internalType":"uint256"}],"outputs":[],"stateMutability":"nonpayable"},{"type":"function","name":"setTotalSupply","inputs":[{"name":"_supply","type":"uint256","internalType":"uint256"}],"outputs":[],"stateMutability":"nonpayable"},{"type":"function","name":"symbol","inputs":[],"outputs":[{"name":"","type":"string","internalType":"string"}],"stateMutability":"view"},{"type":"function","name":"totalSupply","inputs":[],"outputs":[{"name":"","type":"uint256","internalType":"uint256"}],"stateMutability":"view"},{"type":"function","name":"transfer","inputs":[{"name":"to","type":"address","internalType":"address"},{"name":"amount","type":"uint256","internalType":"uint256"}],"outputs":[{"name":"","type":"bool","internalType":"bool"}],"stateMutability":"nonpayable"},{"type":"function","name":"transferFrom","inputs":[{"name":"from","type":"address","internalType":"address"},{"name":"to","type":"address","internalType":"address"},{"name":"amount","type":"uint256","internalType":"uint256"}],"outputs":[{"name":"","type":"bool","internalType":"bool"}],"stateMutability":"nonpayable"},{"type":"event","name":"Approval","inputs":[{"name":"owner","type":"address","indexed":true,"internalType":"address"},{"name":"spender","type":"address","indexed":true,"internalType":"address"},{"name":"value","type":"uint256","indexed":false,"internalType":"uint256"}],"anonymous":false},{"type":"event","name":"Transfer","inputs":[{"name":"from","type":"address","indexed":true,"internalType":"address"},{"name":"to","type":"address","indexed":true,"internalType":"address"},{"name":"value","type":"uint256","indexed":false,"internalType":"uint256"}],"anonymous":false}],"bytecode":{"object":"0x6080604052620186a0600555620186a0600655620186a06007553480156200002657600080fd5b506040518060400160405280600a8152602001692ab734b9bbb0b8102b1960b11b815250604051806040016040528060068152602001652aa72496ab1960d11b81525081600390816200007a91906200021c565b5060046200008982826200021c565b505050620000a733683635c9adc5dea00000620000ad60201b60201c565b62000310565b6001600160a01b038216620001085760405162461bcd60e51b815260206004820152601f60248201527f45524332303a206d696e7420746f20746865207a65726f206164647265737300604482015260640160405180910390fd5b80600260008282546200011c9190620002e8565b90915550506001600160a01b038216600081815260208181526040808320805486019055518481527fddf252ad1be2c89b69c2b068fc378daa952ba7f163c4a11628f55a4df523b3ef910160405180910390a35050565b505050565b634e487b7160e01b600052604160045260246000fd5b600181811c90821680620001a357607f821691505b602082108103620001c457634e487b7160e01b600052602260045260246000fd5b50919050565b601f8211156200017357600081815260208120601f850160051c81016020861015620001f35750805b601f850160051c820191505b818110156200021457828155600101620001ff565b505050505050565b81516001600160401b0381111562000238576200023862000178565b62000250816200024984546200018e565b84620001ca565b602080601f8311600181146200028857600084156200026f5750858301515b600019600386901b1c1916600185901b17855562000214565b600085815260208120601f198616915b82811015620002b95788860151825594840194600190910190840162000298565b5085821015620002d85787850151600019600388901b60f8161c191681555b5050505050600190811b01905550565b808201808211156200030a57634e487b7160e01b600052601160045260246000fd5b92915050565b61095d80620003206000396000f3fe608060405234801561001057600080fd5b50600436106100ea5760003560e01c806370a082311161008c578063a457c2d711610066578063a457c2d7146101e6578063a9059cbb146101f9578063dd62ed3e1461020c578063f7ea7a3d1461021f57600080fd5b806370a082311461019a5780638392b8c0146101c357806395d89b41146101de57600080fd5b806318160ddd116100c857806318160ddd1461015357806323b872dd14610165578063313ce56714610178578063395093511461018757600080fd5b806306fdde03146100ef5780630902f1ac1461010d578063095ea7b314610130575b600080fd5b6100f7610232565b6040516101049190610751565b60405180910390f35b6101156102c4565b60408051938452602084019290925290820152606001610104565b61014361013e3660046107bb565b6102e7565b6040519015158152602001610104565b6002545b604051908152602001610104565b6101436101733660046107e5565b610301565b60405160128152602001610104565b6101436101953660046107bb565b610325565b6101576101a8366004610821565b6001600160a01b031660009081526020819052604090205490565b6101dc6101d1366004610843565b600591909155600655565b005b6100f7610347565b6101436101f43660046107bb565b610356565b6101436102073660046107bb565b6103d6565b61015761021a366004610865565b6103e4565b6101dc61022d366004610898565b600755565b606060038054610241906108b1565b80601f016020809104026020016040519081016040528092919081815260200182805461026d906108b1565b80156102ba5780601f1061028f576101008083540402835291602001916102ba565b820191906000526020600020905b81548152906001019060200180831161029d57829003601f168201915b5050505050905090565b6000806000600554600654603c426102dc9190610901565b925092509250909192565b6000336102f581858561040f565b60019150505b92915050565b60003361030f858285610533565b61031a8585856105ad565b506001949350505050565b6000336102f581858561033883836103e4565b6103429190610914565b61040f565b606060048054610241906108b1565b6000338161036482866103e4565b9050838110156103c95760405162461bcd60e51b815260206004820152602560248201527f45524332303a2064656372656173656420616c6c6f77616e63652062656c6f77604482015264207a65726f60d81b60648201526084015b60405180910390fd5b61031a828686840361040f565b6000336102f58185856105ad565b6001600160a01b03918216600090815260016020908152604080832093909416825291909152205490565b6001600160a01b0383166104715760405162461bcd60e51b8152602060048201526024808201527f45524332303a20617070726f76652066726f6d20746865207a65726f206164646044820152637265737360e01b60648201526084016103c0565b6001600160a01b0382166104d25760405162461bcd60e51b815260206004820152602260248201527f45524332303a20617070726f766520746f20746865207a65726f206164647265604482015261737360f01b60648201526084016103c0565b6001600160a01b0383811660008181526001602090815260408083209487168084529482529182902085905590518481527f8c5be1e5ebec7d5bd14f71427d1e84f3dd0314c0f7b2291e5b200ac8c7c3b925910160405180910390a3505050565b600061053f84846103e4565b905060001981146105a7578181101561059a5760405162461bcd60e51b815260206004820152601d60248201527f45524332303a20696e73756666696369656e7420616c6c6f77616e636500000060448201526064016103c0565b6105a7848484840361040f565b50505050565b6001600160a01b0383166106115760405162461bcd60e51b815260206004820152602560248201527f45524332303a207472616e736665722066726f6d20746865207a65726f206164604482015264647265737360d81b60648201526084016103c0565b6001600160a01b0382166106735760405162461bcd60e51b815260206004820152602360248201527f45524332303a207472616e7366657220746f20746865207a65726f206164647260448201526265737360e81b60648201526084016103c0565b6001600160a01b038316600090815260208190526040902054818110156106eb5760405162461bcd60e51b815260206004820152602660248201527f45524332303a207472616e7366657220616d6f756e7420657863656564732062604482015265616c616e636560d01b60648201526084016103c0565b6001600160a01b03848116600081815260208181526040808320878703905593871680835291849020805487019055925185815290927fddf252ad1be2c89b69c2b068fc378daa952ba7f163c4a11628f55a4df523b3ef910160405180910390a36105a7565b600060208083528351808285015260005b8181101561077e57858101830151858201604001528201610762565b506000604082860101526040601f19601f8301168501019250505092915050565b80356001600160a01b03811681146107b657600080fd5b919050565b600080604083850312156107ce57600080fd5b6107d78361079f565b946020939093013593505050565b6000806000606084860312156107fa57600080fd5b6108038461079f565b92506108116020850161079f565b9150604084013590509250925092565b60006020828403121561083357600080fd5b61083c8261079f565b9392505050565b6000806040838503121561085657600080fd5b50508035926020909101359150565b6000806040838503121561087857600080fd5b6108818361079f565b915061088f6020840161079f565b90509250929050565b6000602082840312156108aa57600080fd5b5035919050565b600181811c908216806108c557607f821691505b6020821081036108e557634e487b7160e01b600052602260045260246000fd5b50919050565b634e487b7160e01b600052601160045260246000fd5b818103818111156102fb576102fb6108eb565b808201808211156102fb576102fb6108eb56fea2646970667358221220c26ebd1292667284d755b9a74ff086aa0d0b4ca6807f0d1f1e47259ce9b8b44564736f6c63430008110033","linkReferences":{}},"methodIdentifiers":{"allowance(address,address)":"dd62ed3e","approve(address,uint256)":"095ea7b3","balanceOf(address)":"70a08231","decimals()":"313ce567","decreaseAllowance(address,uint256)":"a457c2d7","getReserves()":"0902f1ac","increaseAllowance(address,uint256)":"39509351","name()":"06fdde03","setReserves(uint256,uint256)":"8392b8c0","setTotalSupply(uint256)":"f7ea7a3d","symbol()":"95d89b41","totalSupply()":"18160ddd","transfer(address,uint256)":"a9059cbb","transferFrom(address,address,uint256)":"23b872dd"},"id":7}